:100000000C94EA000C94CE090C94A7090C94800976
:100010000C9459090C9412010C9412010C9432099D
:100020000C9412010C9412010C94F5090C94630BBE
:100030000C9412010C9412010C9412010C941201F4
:100040000C9412010C9412010C9412010C941201E4
:100050000C9412010C9412010C9412010C94E808F7
:100060000C9412010C9412010C9412010C941201C4
:100070000C9412010C9412010C9412010C941201B4
:100080000C9412010C9412010C9412010C941201A4
:100090000C9412010C9412010C9412010C94120194
:1000A0000C9412010C9412010C941201A207A507E2
:1000B000940798079C07C607C607C607A907AD0798
:1000C000B107B707BB07C607C1073D084208470885
:1000D00051085B08A508A508A50865086F087908F8
:1000E00083089008A5089808000000002400270055
:1000F0002A002D00300000000000250028002B0001
:100100002E00310004040404040304050202020268
:1001100004030202020206060606060604040202A0
:100120000204040408020110408040102040804076
:10013000800802040180402010020110801020403D
:1001400040200000000200090F0000030401000C21
:10015000000000000000000000000000000000009F
:1001600000080B0002020201000904000001020263
:1001700000000524001001052401010104240206E9
:100180000524060001070581031000400904010051
:10019000020A000000070502024000000705830272
:1001A0004000000403090412010002EF0201404173
:1001B00023418000010102030141726475696E6F81
:1001C000204C4C430041726475696E6F2059756E06
:1001D0000000ED0F11241FBECFEFDAE0DEBFCDBF70
:1001E00012E0A0E0B1E0E2EBF0E202C005900D9277
:1001F000A83EB107D9F723E0A8EEB2E001C01D92F6
:10020000A538B207E1F710E0CAEED0E004C02197AC
:10021000FE010E943810C93ED107C9F70E94930D14
:100220000C9457100C940000CF93DF931F92CDB71E
:10023000DEB76983DC01ED91FC910280F381E02D52
:1002400041E050E0BE016F5F7F4F09950F90DF9155
:10025000CF91089583E08093E9008091F200882394
:1002600019F08AE38093E8000895FC018485958560
:1002700097FD0BC09FB7F89482E08093E9008091CE
:10028000F2009FBF90E0019608959FB7F89482E036
:100290008093E9008091F2009FBF90E00895089557
:1002A00080E090E008958A31910511F154F486318F
:1002B0009105A1F0489731F5709303036093020311
:1002C00008958E31910579F080329105B1F04C9707
:1002D000C9F47093ED026093EC02089570930D03DE
:1002E00060930C0308957093F1026093F0020895F7
:1002F000709301036093000308957093FF0260936D
:10030000FE0208958FE291E00C949806EF92FF921E
:100310000F931F93CF93DF931F92CDB7DEB7F82EC5
:10032000E62E890161E070E049830E945301B80123
:100330004981842F0E94160860E08F2D0E94770764
:1003400061E08E2D0E94770781E08093FD020F907F
:10035000DF91CF911F910F91FF90EF900895EF9251
:10036000FF920F931F93CF93DF931F92CDB7DEB70A
:10037000F82EE62E890162E070E049830E94530165
:10038000B8014981842F0E94160861E08F2D0E94D8
:10039000770760E08E2D0E94770781E08093FD0251
:1003A0000F90DF91CF911F910F91FF90EF900895E3
:1003B0000F931F93CF93DF93EC01062F142F8A31F5
:1003C000910511F154F486319105A1F0489731F56A
:1003D000109203031092020325C08E31910579F02B
:1003E00080329105B1F04C97C9F41092ED02109251
:1003F000EC0218C010920D0310920C0313C010925F
:10040000F1021092F0020EC010920103109200034C
:1004100009C01092FF021092FE0204C08FE291E028
:100420000E94980660E08C2F0E94770760E0802F82
:100430000E94770760E0812F0E9477071092FD02EB
:10044000DF91CF911F910F9108958091FA029091C1
:10045000FB020197F1F02091120330911303809178
:100460000A0390910B032817390761F48091FD026C
:10047000811108C044E050E067E170E086E190E05F
:100480000C94D80180910C0390910D03823091055A
:1004900031F48091120390911303019607C00197E4
:1004A00051F48091120390911303019790931303D9
:1004B00080931203089508958091F4029091F502BB
:1004C0000197F1F0209114033091150380910403FA
:1004D000909105032817390761F48091FD0281117D
:1004E00008C046E050E06BE170E08AE190E00C94D7
:1004F000D80180910003909101038230910531F47D
:10050000809114039091150301960EC0019789F410
:1005100080911403909115031816190654F48091D4
:10052000140390911503019790931503809314037E
:10053000089508958091F8029091F9020197F1F0E1
:1005400020910E0330910F038091060390910703D1
:100550002817390761F48091FD02811108C049E034
:1005600050E061E270E080E290E00C94D80180916C
:10057000FE029091FF028230910531F480910E03CA
:1005800090910F0301960EC0019789F480910E039C
:1005900090910F031816190654F480910E03909150
:1005A0000F03019790930F0380930E03089508950E
:1005B0008091F2029091F302892B41F448E050E0DF
:1005C0006FE170E08EE190E00C94D8018091F00230
:1005D0009091F1028230910531F48091F202909174
:1005E000F30201960EC0019789F48091F202909176
:1005F000F3021816190674F48091F2029091F30236
:1006000001979093F3028093F202089582E491E0BF
:100610000C94980608958091EE029091EF02892B38
:1006200041F447E050E06DE170E08CE190E00C9423
:10063000D8018091EC029091ED028230910531F465
:100640008091EE029091EF0201960EC0019789F41D
:100650008091EE029091EF021816190674F48091C1
:10066000EE029091EF0201979093EF028093EE02D9
:1006700008958AE691E00C9498060895CF92DF924F
:10068000EF920F93CF93DC01C22F932F1092FD02B4
:100690006D937C93FA0120813181261737077CF412
:1006A00062E070E08C2F0E945301B6018E2D0E94F3
:1006B000160861E08C2F0E94770760E014C0FA01F1
:1006C0002081318162177307B4F461E070E08C2FF0
:1006D0000E945301B6018E2D0E94160860E08C2FF7
:1006E0000E94770761E0802FCF910F91EF90DF900C
:1006F000CF900C947707CF910F91EF90DF90CF9030
:100700000895CF92DF92EF92FF920F931F93809103
:10071000F6029091F702019701F5809110039091F4
:100720001103019690931103809310036091EA02E4
:100730007091EB026B5F7D4F8CE3C82ED12C99E05A
:10074000E92EF12C01E210E020E230E04EE053E02F
:1007500086E093E00E943E032DC02091100330916B
:10076000110380910803909109032817390791F428
:100770008091FD0281110EC045E050E069E170E01A
:1007800088E190E01F910F91FF90EF90DF90CF9064
:100790000C94D8018091020390910303823091055B
:1007A000C9F4809110039091110301969093110365
:1007B00080931003809110039091110363E070E027
:1007C0000E940210892B21F58091EA029091EB02A0
:1007D00001961AC00197E1F48091100390911103E2
:1007E00001979093110380931003809110039091CF
:1007F000110363E070E00E940210892B49F480919C
:10080000EA029091EB0201979093EB028093EA0247
:100810001F910F91FF90EF90DF90CF9008956F920E
:100820007F928F929F92AF92BF92CF92DF92EF9280
:10083000FF920F931F93CF93DF934C015B01EA016B
:10084000122F81E090E0F401918380838091FA027D
:100850009091FB020E94A60666246A94762CF5010C
:100860008081918186159705A9F1F50160807180DD
:10087000B701CE010E945301B601802F0E941608D5
:10088000F2E0EF16F10431F461E08C2F0E9477075B
:1008900060E009C081E0E816F10441F460E08C2FCB
:1008A0000E94770761E0812F0E94770764E670E07D
:1008B00080E090E00E94AE0860E08C2F0E947707F5
:1008C00060E0812F0E94770760E070E0802F0E9437
:1008D0001608C5CFF2E0EF16F104A1F4C631D10538
:1008E00031F0C831D10549F48CE598E002C086E4C6
:1008F0009AE0F5019183808308C080E991E00E942D
:10090000980603C0F501118210828091FA0290913D
:10091000FB020E94A606F40111821082CA31D105A1
:10092000D1F044F4C631D10581F06897D1F48AEB57
:1009300091E019C0CE31D10559F0C032D10571F026
:100940006C9779F48FEC91E00EC082EA91E00BC0D5
:1009500084EE91E008C08CEF91E005C08FE092E05A
:1009600002C082E292E0DF91CF911F910F91FF9040
:10097000EF90DF90CF90BF90AF909F908F907F903F
:100980006F900C949806CF92DF92EF92FF920F93A4
:100990001F9386E4C82ED12CEE24E394F12C09E0B9
:1009A00010E021E230E040E250E06EE073E088EFDA
:1009B00092E00E940F042AE5C22ED12C39E0E32EEA
:1009C000F12C01E210E020E230E04EE053E065E07F
:1009D00072E086E093E00E943E0360E971E080E00F
:1009E00090E00E94AE0847E8C42ED12CEE24E39498
:1009F000F12C04E010E027E130E046E150E062E154
:100A000073E08AEF92E00E940F0464E873E080E0F4
:100A100090E00E94AE0866E9C62ED12C72E0E72E67
:100A2000F12C05E010E029E130E048E150E060E120
:100A300073E086EF92E00E940F04E4EBCE2ED12CFF
:100A4000F4E0EF2EF12C07E110E026E130E042E186
:100A500053E063E275E08AE093E00E943E03A8E77A
:100A6000CA2ED12CB5E0EB2EF12C09E110E028E1E3
:100A700030E040E153E06EE274E088E093E00E94F1
:100A80003E0311E4C12ED12C09E0E02EF12C01E24D
:100A900010E020E230E04EE053E065E072E086E0F6
:100AA00093E00E943E0368E670E180E090E00E94DF
:100AB000AE0880EFC82ED12CEE24E394F12C06E092
:100AC00010E02BE130E04AE150E064E173E084EFB4
:100AD00092E00E940F042AEFC22ED12C36E0E32EC2
:100AE000F12C0BE110E02AE130E044E153E060E951
:100AF00071E084E093E00E943E0368EB7BE080E0DD
:100B000090E00E94AE0887E392E01F910F91FF9062
:100B1000EF90DF90CF900C9498068F929F92AF92B7
:100B2000BF92CF92DF92EF92FF920F931F93CF93DA
:100B3000DF935C016B017A0180911501882309F430
:100B40005BC080911903882309F456C08091160375
:100B500080FF05C08091E00082608093E000E701A3
:100B600010E00AEF83E0882E9AE3992E2097D9F1BE
:100B70000E94520781110AC0015009F43DC061E092
:100B800070E080E090E00E94AE08F0CF282F30E0C7
:100B9000C217D3070CF48C2F4FB7F8948092E9005A
:100BA0009091E80095FF1DC0282F30E0C21BD30BA9
:100BB000F601982F915020F081918093F100FACFA7
:100BC000C20ED31E112319F09092E80009C0809143
:100BD000E80085FD06C09092E80011E0209709F03A
:100BE00010E04FBFC3CF1111C3CF5D9884E680934F
:100BF00017031E141F0444F081E090E0F501938375
:100C0000828380E090E001C0C701DF91CF911F9106
:100C10000F91FF90EF90DF90CF90BF90AF909F909B
:100C20008F9008950E94520790E00895CF93DF932C
:100C30001F92CDB7DEB7FC018485958597FD05C071
:100C40002FEF3FEF358724870BC0CE0101960E941E
:100C50002807019719F4898190E002C08FEF9FEF78
:100C60000F90DF91CF9108950F931F93CF93DF9350
:100C70001F92CDB7DEB78C01FC018485958597FF67
:100C80000EC0CE0101960E942807019719F4298110
:100C900030E002C02FEF3FEFF80135872487F801DD
:100CA000848595850F90DF91CF911F910F910895C5
:100CB0003FB7F89480916F0390917003A0917103F6
:100CC000B091720326B5A89B05C02F3F19F001967D
:100CD000A11DB11D3FBFBA2FA92F982F8827820FC2
:100CE000911DA11DB11DBC01CD0142E0660F771F12
:100CF000881F991F4A95D1F7089508950E945210B0
:100D0000BC01009791F0FC0101900020E9F73197B8
:100D1000AF01481B590BE0911A03F0911B030280AD
:100D2000F381E02D8AE193E0099480E090E008955A
:100D3000CF93DF930E948006EC018BE492E00E9447
:100D400080068C0F9D1FDF91CF9108958F929F9207
:100D5000AF92BF92CF92DF92EF92FF920F931F93C9
:100D6000CF93DF93CDB7DEB7A1970FB6F894DEBF70
:100D70000FBECDBF6C01990FEE08FF08F7FE31C022
:100D8000E0911A03F0911B030190F081E02D6DE2D8
:100D90008AE193E009958C0122273327A9012C19B8
:100DA0003D094E095F0919A2CE0181967C019AE0A6
:100DB000892E912CA12CB12CCA01B901A501940155
:100DC0000E941610605DF70162937F0121153105C5
:100DD0004105510589F7CF010E948006080F191FB0
:100DE0001EC0A701960119A28E010F5D1F4F8AE058
:100DF000C82ED12CE12CF12CCA01B901A701960112
:100E00000E941610605DF80162938F012115310573
:100E10004105510589F7CF010E9480068C018BE4C2
:100E200092E00E948006800F911FA1960FB6F89461
:100E3000DEBF0FBECDBFDF91CF911F910F91FF900D
:100E4000EF90DF90CF90BF90AF909F908F900895DC
:100E5000FC0180911903811103C08FEF9FEF08956A
:100E60009FB7F89482E08093E9002091F20030E08F
:100E70001216130614F421E030E02115310559F063
:100E8000289884E6809318038091F10080838091F4
:100E9000F200882319F09FBFC90108958BE6809363
:100EA000E800F9CF2FB7F89483E08093E9009091A0
:100EB000E800892F807295FF04C09091F20080E4D1
:100EC000891B2FBF08958091770381110DC082E0A7
:100ED0008093730384E080937403109276031092DE
:100EE000750381E08093770383E793E00895362FBD
:100EF00090E0FC01EE5BFE4F4491FC01ED5DFE4F86
:100F00002491FC01EC5FFE4F8491882309F451C0C9
:100F10004423E1F150E0FA013197EF30F105B0F5EB
:100F2000EA5AFF4F0C943810909180009F7707C0C9
:100F3000909180009F7D03C090918000977F909357
:100F4000800024C094B59F7702C094B59F7D94BD66
:100F50001DC0909190009F7707C0909190009F7D59
:100F600003C090919000977F909390000FC0909154
:100F7000C0009F7703C09091C0009F7D9093C000F8
:100F800005C09091C200977F9093C200E82FF0E0D7
:100F9000EE0FFF1FEA50FF4FA591B4918FB7F89461
:100FA000EC91311103C020952E2301C02E2B2C93E0
:100FB0008FBF0895CF93DF9390E0FC01ED5DFE4F6E
:100FC0002491FC01EC5FFE4F8491882361F190E055
:100FD000880F991FFC01E851FF4FC591D491FC0186
:100FE000EA50FF4FA591B491611109C09FB7F894E1
:100FF0008881209582238883EC912E230BC0623058
:1010000061F49FB7F8943881822F80958323888379
:10101000EC912E2B2C939FBF06C08FB7F894E881DC
:101020002E2B28838FBFDF91CF9108951F93CF93ED
:10103000DF93182FEB0161E00E94DA07209711F48B
:1010400060E004C0CF3FD10539F461E0812FDF912A
:10105000CF911F910C947707E12FF0E0EE5BFE4FEC
:10106000E4914E2F50E0FA013197EF30F10508F08E
:101070006CC0EB59FF4F0C94381084B5806884BD68
:10108000C7BD68C084B5806284BDC8BD63C080919F
:101090008000806880938000D0938900C09388008E
:1010A00059C080918000806280938000D0938B0033
:1010B000C0938A004FC08091800088608093800038
:1010C000D0938D00C0938C0045C0809190008068C3
:1010D00080939000D0939900C09398003BC080917A
:1010E0009000806280939000D0939B00C0939A0000
:1010F00031C080919000886080939000D0939D00D3
:10110000C0939C0027C08091C00080688093C0007D
:101110008091C0008F7B8093C000C093CF001AC025
:101120008091C00080628093C000C093D00012C044
:101130008091C20088608093C2008091C2008B7F42
:101140008093C200C093D20005C0C038D1050CF016
:101150007CCF76CFDF91CF911F9108958F929F9290
:10116000AF92BF92CF92DF92EF92FF926B017C0120
:101170000E9458064B015C01C114D104E104F10442
:10118000F1F00E945806DC01CB0188199909AA09DF
:10119000BB09883E9340A105B10570F321E0C21A56
:1011A000D108E108F10888EE880E83E0981EA11CA2
:1011B000B11CC114D104E104F10419F7DDCFFF9093
:1011C000EF90DF90CF90BF90AF909F908F90089559
:1011D0001F920F920FB60F9211242F933F938F936C
:1011E0009F93AF93BF9380916B0390916C03A091F9
:1011F0006D03B0916E0330916A0323E0230F2D3706
:1012000020F40196A11DB11D05C026E8230F02960A
:10121000A11DB11D20936A0380936B0390936C030F
:10122000A0936D03B0936E0380916F039091700350
:10123000A0917103B09172030196A11DB11D80931D
:101240006F0390937003A0937103B0937203BF91E7
:10125000AF919F918F913F912F910F900FBE0F9063
:101260001F9018951F920F920FB60F9211242F9373
:101270003F934F935F936F937F938F939F93AF931E
:10128000BF93EF93FF93E0910801F0910901099555
:10129000FF91EF91BF91AF919F918F917F916F914E
:1012A0005F914F913F912F910F900FBE0F901F9024
:1012B00018951F920F920FB60F9211242F933F9300
:1012C0004F935F936F937F938F939F93AF93BF934E
:1012D000EF93FF93E0910601F09107010995FF91CB
:1012E000EF91BF91AF919F918F917F916F915F919E
:1012F0004F913F912F910F900FBE0F901F90189517
:101300001F920F920FB60F9211242F933F934F937A
:101310005F936F937F938F939F93AF93BF93EF935D
:10132000FF93E0910401F09105010995FF91EF9180
:10133000BF91AF919F918F917F916F915F914F91ED
:101340003F912F910F900FBE0F901F9018951F92F5
:101350000F920FB60F9211242F933F934F935F93E9
:101360006F937F938F939F93AF93BF93EF93FF936D
:10137000E0910201F09103010995FF91EF91BF9176
:10138000AF919F918F917F916F915F914F913F911D
:101390002F910F900FBE0F901F9018951F920F92D4
:1013A0000FB60F9211242F933F934F935F936F9338
:1013B0007F938F939F93AF93BF93EF93FF93E091AE
:1013C0000001F09101010995FF91EF91BF91AF915B
:1013D0009F918F917F916F915F914F913F912F914D
:1013E0000F900FBE0F901F9018951F920F920FB67F
:1013F0000F9211248F939F938091E1009091E100CF
:10140000937F9093E10083FF0FC01092E90091E079
:101410009093EB001092EC0092E39093ED00109209
:10142000190398E09093F00082FF20C093E090931E
:10143000E9009091F200992319F09AE39093E80063
:1014400090911703992339F090911703915090933D
:101450001703992389F190911803992339F09091FA
:101460001803915090931803992341F184FF10C001
:101470008091E2008E7E81608093E2008091E100A5
:101480008F7E8093E100809116038E7E806111C073
:1014900080FF16C08091E2008E7E80618093E20022
:1014A0008091E1008E7E8093E100809116038E7E14
:1014B00081608093160304C05D9ACDCF289AD6CF61
:1014C0009F918F910F900FBE0F901F901895409194
:1014D000830350918403209181033091820342174A
:1014E0005307B4F49091E8009570E1F39091E8000F
:1014F00092FD19C08093F100809183039091840341
:1015000001968F739927892B19F48EEF8093E80049
:101510008091830390918403019690938403809338
:10152000830381E0089580E00895CF92DF92EF92E7
:10153000FF920F931F93CF93DF931F92CDB7DEB728
:10154000182F062FE42E862F880F8E5F99830E9416
:10155000670A83E00E94670AF12EC12E9981D92E75
:101560008C2D8F19801798F4F601E7FE02C0849144
:1015700001C080810E94670A182F80E00E94670ADC
:101580008123FFEFCF1ADF0A8111EACF01C081E08A
:101590000F90DF91CF911F910F91FF90EF90DF900F
:1015A000CF900895DF92EF92FF920F931F93CF9306
:1015B000DF93D82E8A017B01E40EF51EEB01CE15D8
:1015C000DF0571F0D7FE03C0FE01849101C0888160
:1015D0000E94670A21968111F2CF8FEF9FEF01C021
:1015E000C801DF91CF911F910F91FF90EF90DF9095
:1015F0000895615030F02091F100FC0120830196A4
:10160000F8CF289884E6809318030895CF92DF924C
:10161000EF92FF920F931F93CF93DF936C017A01A8
:101620008B01C0E0D0E0CE15DF0589F0D8016D91C7
:101630008D01D601ED91FC910190F081E02DC60164
:101640000995892B11F47E0102C02196ECCFC701C8
:10165000DF91CF911F910F91FF90EF90DF90CF908E
:1016600008950F931F93CF93DF931F92CDB7DEB7EB
:1016700082E0898342E450E061E671E080E80E9404
:10168000D20A0E946307DC0112960D911C911397F8
:101690000115110569F0D801ED91FC910280F381EB
:1016A000E02DBE016F5F7F4FC801099597FF07C00E
:1016B00089810F90DF91CF911F910F910895F801CB
:1016C00000851185E5CF1F920F920FB60F9211245E
:1016D000CF92DF92EF92FF920F931F932F933F933E
:1016E0004F935F936F937F938F939F93AF93BF932A
:1016F000EF93FF93CF93DF93CDB7DEB76C97DEBF49
:10170000CDBF1092E9008091E80083FFEDC168E051
:10171000CE0145960E94F90A82EF8093E8008D89F8
:1017200087FF05C09091E80090FFFCCF03C09EEFBB
:101730009093E800982F907609F0C6C09E892F8973
:10174000188D91110CC0803829F48091800380930A
:10175000F10002C01092F1001092F10048C1422F36
:1017600050E0512B913051F4811141C1413051056C
:1017700009F03DC1809180038D7F0BC0933061F4EF
:10178000811135C14130510509F031C1809180038B
:101790008260809380032BC1953041F48091E800F2
:1017A00080FFFCCF20682093E30021C1963009F030
:1017B0005FC0EB8CFC8C1092E900109284031092B5
:1017C0008303123091F510928203109281030E94DC
:1017D000310B99E0BE016F5F7F4FDB01E92F1D9256
:1017E000EA95E9F799831A8391E09E8390EA9887B6
:1017F0009AEF99872091830330918403275F3F4FAD
:101800003C832B838D831092E90010928403109205
:101810008303F0928203E092810349E050E080E08C
:101820000E94D20A0E94310BE2C0F0928203E09241
:1018300081030E946307DC011296ED90FC901397E0
:10184000E114F10409F4C0C0D701ED91FC910480CA
:10185000F581E02DBE016B5E7F4FC70109950097B2
:1018600019F00CF0C4C0C7C0F701E084F184E8CFE0
:10187000973009F4C0C0983021F481E08093F100E2
:10188000B6C0993009F0B3C0837009F0B4C0E9E282
:10189000F1E081E021E036E39081992361F08093CB
:1018A000E9002093EB0091919093EC003093ED00D0
:1018B0008F5F873089F78EE78093EA001092EA0005
:1018C0008F898093190393C08B8D9C8D1092E900B2
:1018D0001092840310928303909382038093810378
:1018E000898D811156C08E899D89913A59F4813232
:1018F00009F081C047E050E06EE071E080E00E94B6
:10190000D20A75C0913209F076C0833289F4888D8D
:1019100090E0982F88272F89822BA0E0B0E0809359
:101920000A0190930B01A0930C01B0930D015FC0CD
:10193000803269F48091E80082FFFCCF67E08EE09E
:1019400091E00E94F90A8BEF8093E80006C0823292
:1019500009F04DC08F898093150180917F03882302
:1019600019F0EEEFFAE002C0E0E0F8E080910E013D
:1019700090910F01A0911001B0911101803B944012
:10198000A105B10509F07BC08091150180FF93C0CE
:1019900076C00E946307DC0112960D911C9113978B
:1019A0000115110541F1D801ED91FC910190F081F3
:1019B000E02DBE016B5E7F4FC8010995811117C0F4
:1019C000F80100851185ECCF113009F44EC01330B9
:1019D00091F48F89882309F445C0823081F440E86E
:1019E0006BE085EC91E00E94950A882321F08EEF50
:1019F0008093E80079C081E28093EB0075C081306C
:101A000029F440E86BE089EB91E0EDCF833099F762
:101A10000E946307DC011296ED90FC9013978E01F3
:101A20000F5F1F4F6801E114F10479F0D701ED91C8
:101A3000FC910680F781E02DB801C7010995080FD8
:101A4000111DF701E084F184EECFD8011C92F6015C
:101A500001900020E9F73197BF016C197D0940E042
:101A6000C601C1CF63EA71E002C067EA71E06115A7
:101A7000710509F2FB01449150E080E840CF0FB6B8
:101A8000F894A8958091600088618093600010921E
:101A900060000FBEA895EE3F2AE0F20739F0809172
:101AA000FE0A9091FF0A91838083A1CF1092FF0AD2
:101AB0001092FE0A9CCFEE3F8AE0F80731F0808159
:101AC00091819093FF0A8093FE0A87E797E79183BD
:101AD00080839BE088E10FB6F894A895809360001E
:101AE0000FBE9093600083CF6C960FB6F894DEBF64
:101AF0000FBECDBFDF91CF91FF91EF91BF91AF911D
:101B00009F918F917F916F915F914F913F912F9115
:101B10001F910F91FF90EF90DF90CF900F900FBE2D
:101B20000F901F901895789484B5826084BD84B519
:101B3000816084BD85B5826085BD85B5816085BDC8
:101B400080916E00816080936E0010928100809180
:101B50008100826080938100809181008160809308
:101B6000810080918000816080938000809191004D
:101B700082608093910080919100816080939100B8
:101B8000809190008160809390008091C10084607A
:101B90008093C1008091C10082608093C1008091D8
:101BA000C10081608093C1008091C30081608093F7
:101BB000C3008091C00082608093C0008091C20009
:101BC00081608093C20080917A00846080937A0063
:101BD00080917A00826080937A0080917A0081609F
:101BE00080937A0080917A00806880937A001092C6
:101BF000190310928003109216038091D700816020
:101C00008093D70080EA8093D80089B5806189BD30
:101C100089B5826089BD09B400FEFDCF61E070E046
:101C200080E090E00E94AE088091D8008F7C8061B7
:101C30008093D8008091E000807F8093E0008091C5
:101C4000E1008E7E8093E1008DE08093E200559A62
:101C5000209AEEEFFFE7859194918B3F9C4D19F40C
:101C600081E080937F03C4E061E08C2F0E94DA075B
:101C7000CF5FCA30C9F7C6E161E08C2F0E94DA0756
:101C8000CF5FC232C9F762E082E00E94DA0762E009
:101C900083E00E94DA0762E085E10E94DA0762E0F1
:101CA00082E10E94DA0762E083E10E94DA0762E0E3
:101CB00084E10E94DA0760E08EE00E94DA078FEF8D
:101CC0009FEF909327038093260385E292E0909301
:101CD000030180930201809169008C608093690008
:101CE000E99A81E893E0909301018093000180914B
:101CF0006900836080936900E89A0E94C304E0E071
:101D0000AE2EE0E0BE2ED1E08AE193E00E943501E4
:101D1000181619060CF05AC18AE193E00E941606C3
:101D2000C82FE0911A03F0911B030190F081E02D80
:101D3000682F8AE193E009958BE492E00E94800687
:101D4000CC3609F4DDC00CF079C0C23609F405C107
:101D50000CF053C0C93409F42FC1C13609F032C1A7
:101D600082E692E00E94980684EBC82ED12C94E083
:101D7000E92EF12C07E110E026E130E042E153E0EA
:101D800063E275E08AE093E00E943E0328E7C22EFA
:101D9000D12C35E0E32EF12C09E110E028E130E010
:101DA00040E153E06EE274E088E093E00E943E037D
:101DB00041E4C42ED12C59E0E52EF12C01E210E0D3
:101DC00020E230E04EE053E065E072E086E093E030
:101DD0000E943E036AEFC62ED12C76E0E72EF12C4E
:101DE0000BE110E02AE130E044E153E066E572E007
:101DF00084E093E00E943E037CC0C43609F49EC098
:101E00000CF4CEC0C63609F0DDC024EB30E044E06F
:101E100050E067E170E086E190E00E94AF0128E7C2
:101E200030E045E050E069E170E088E190E00E9438
:101E30008601D093FC0284EA92E0C6C0C53709F45B
:101E40006EC0B4F4C33711F10CF0AFC0C23709F063
:101E5000B9C021E430E049E050E061E270E080E2A6
:101E600090E00E94AF01D093FD0285E792E0ACC004
:101E7000C83709F490C0CA3709F488C0C63709F0DA
:101E8000A1C080910E0390910F0393C08EE492E065
:101E90000E949806C6E160E08C2F0E947707CF5F12
:101EA000C332C9F7C4E060E070E08C2F0E941608CE
:101EB000CF5FCA30C1F78EE492E086C080910C03F8
:101EC00090910D03892B09F481C0809100039091BA
:101ED0000103892B09F47AC08091FE029091FF02E0
:101EE000892B09F473C064E670E080E090E00E9402
:101EF000AE088091020390910303892BF9F666C026
:101F000021E430E049E050E061E270E080E290E0FE
:101F10000E948601D093FD0282E892E055C02AEF2C
:101F200030E046E050E06BE170E08AE190E00E9432
:101F3000AF01D093FD028EE892E046C02AEF30E078
:101F400046E050E06BE170E08AE190E00E9486019B
:101F5000D093FD0288E992E037C024EB30E044E002
:101F600050E067E170E086E190E00E94860128E79A
:101F700030E045E050E069E170E088E190E00E94E7
:101F8000AF01D093FC0283EB92E01EC0809114035A
:101F9000909115030EC0809112039091130309C014
:101FA000809110039091110304C080910C039091D3
:101FB0000D030E94A6060AC084EC92E00E949806D7
:101FC0000E94C30487ED92E00E949806A114B10418
:101FD00009F49ACE0E94000097CEEAE1F3E0138262
:101FE000128288EE93E0A0E0B0E084839583A6831C
:101FF000B7838AE191E0918380838FEF9FEF95878C
:102000008487089597FB072E16F4009407D077FD78
:1020100009D00E943E1007FC05D03EF490958195B2
:102020009F4F0895709561957F4F0895A1E21A2EF4
:10203000AA1BBB1BFD010DC0AA1FBB1FEE1FFF1F6C
:10204000A217B307E407F50720F0A21BB30BE40BBC
:10205000F50B661F771F881F991F1A9469F7609503
:102060007095809590959B01AC01BD01CF010895BD
:10207000EE0FFF1F0590F491E02D0994AA1BBB1BE6
:1020800051E107C0AA1FBB1FA617B70710F0A61B78
:10209000B70B881F991F5A95A9F780959095BC0199
:1020A000CD01089581E090E0F8940C945710F894D5
:0220B000FFCF60
:1020B2007D067D067D067D067D06FFFFFFFF00E1B2
:1020C2000000000000000000000014018D0512064F
:1020D2002A0135011606340600C180810000006520
:1020E20072726F72206F6E20646972656374696FB9
:1020F2006E00536F6D657468696E6720696E207734
:10210200726973744C4820656E636F6465722077E0
:10211200656E742077726F6E6700536F6D657468B9
:10212200696E6720696E20777269737420656E63C9
:102132006F6465722077656E742077726F6E6700C8
:10214200696E697420737769746368206572726F4F
:10215200720053686F756C64657220736574757074
:1021620020636F6D706C65746500656C626F7720BB
:10217200736574757020636F6D706C65746500773C
:102182007269737420736574757020636F6D706CFF
:10219200657465005772697374204C4820736574C6
:1021A200757020636F6D706C657465005A6564208C
:1021B200736574757020636F6D706C6574650079FA
:1021C200617720736574757020636F6D706C6574D0
:1021D2006500696E69742077656E74207665727920
:1021E2002077726F6E6700616C6C20736574757016
:1021F2007320636F6D706C657465000D0A00537413
:102202006F7070696E6720616C6C206D6F746F7295
:102212007300726573657474696E6720706F736999
:1022220074696F6E006D6F76696E672052696768B8
:1022320074006D6F76696E67206C656674006D6FF1
:1022420076696E67207570006D6F76696E672064BF
:102252006F776E006D6F76696E6720666F72776159
:102262007264006D6F76696E67206261636B77617D
:1022720072647300696E697469616C6973696E670F
:1022820020526F626F7400696E76616C69642063BC
:082292006F6D6D616E640000C8
:00000001FF
