:100000000C945D000C9414080C94ED070C9485007E
:100010000C9485000C9485000C9485000C9485004C
:100020000C9485000C9485000C9485000C9485003C
:100030000C9485000C9485000C9485000C9485002C
:100040000C94A3070C9485000C9461080C943B0855
:100050000C9485000C9485000C9485000C9485000C
:100060000C9485000C9485000000000024002700FB
:100070002A0000000000250028002B0004040404CE
:100080000404040402020202020203030303030342
:10009000010204081020408001020408102001021F
:1000A00004081020000000080002010000030407FB
:1000B0000000000000000000B70A11241FBECFEFAF
:1000C000D8E0DEBFCDBF12E0A0E0B1E0E6E7F6E1A8
:1000D00002C005900D92AC3CB107D9F723E0ACEC1F
:1000E000B2E001C01D92A03AB207E1F710E0CDE501
:1000F000D0E004C02197FE010E942E0BCC35D10721
:10010000C9F70E9493080C94390B0C94000090E0FE
:10011000FC01EC55FF4F3491FC01E057FF4F249157
:10012000FC01E458FF4FE491EE2309F43BC0332374
:1001300039F1333091F038F43130A9F0323001F533
:1001400084B58F7D12C0373091F03830A1F0343053
:10015000B9F4809180008F7D03C0809180008F77FB
:10016000809380000DC084B58F7784BD09C08091D5
:10017000B0008F7703C08091B0008F7D8093B00076
:10018000F0E0EE0FFF1FEE58FF4FA591B4918FB72F
:10019000F894EC91611103C020952E2301C02E2B01
:1001A0002C938FBF0895CF93DF9390E0FC01E0572D
:1001B000FF4F2491FC01E458FF4F8491882361F1A3
:1001C00090E0880F991FFC01E859FF4FC591D49129
:1001D000FC01EE58FF4FA591B491611109C09FB782
:1001E000F8948881209582238883EC912E230BC07C
:1001F000623061F49FB7F8943881822F8095832311
:100200008883EC912E2B2C939FBF06C08FB7F89458
:10021000E8812E2B28838FBFDF91CF9108951F9304
:10022000CF93DF93182FEB0161E00E94D30020975A
:1002300011F460E004C0CF3FD10539F461E0812FB3
:10024000DF91CF911F910C948700E12FF0E0EC55E6
:10025000FF4FE491E330F9F048F4E130B9F0E230D7
:10026000A1F584B5806284BDC8BD34C0E730E9F033
:10027000E83019F1E43049F5809180008062809384
:100280008000D0938B00C0938A0024C084B580681E
:1002900084BDC7BD1FC080918000806880938000AE
:1002A000D0938900C093880015C08091B000806809
:1002B0008093B000C093B3000DC08091B000806205
:1002C0008093B000C093B40005C0C038D1050CF0D5
:1002D000B5CFAFCFDF91CF911F9108953FB7F8947D
:1002E0008091FF0290910003A0910103B09102035D
:1002F00026B5A89B05C02F3F19F00196A11DB11D81
:100300003FBFBA2FA92F982F8827820F911DA11DBB
:10031000B11DBC01CD0142E0660F771F881F991FF8
:100320004A95D1F708958F929F92AF92BF92CF9244
:10033000DF92EF92FF926B017C010E946E014B01F4
:100340005C01C114D104E104F104F1F00E946E01DA
:10035000DC01CB0188199909AA09BB09883E9340A1
:10036000A105B10570F321E0C21AD108E108F10836
:1003700088EE880E83E0981EA11CB11CC114D10424
:10038000E104F10419F7DDCFFF90EF90DF90CF90FB
:10039000BF90AF909F908F9008950895CF92DF9275
:1003A000EF92FF920F931F93CF93DF936C017A012B
:1003B0008B01C0E0D0E0CE15DF0589F0D8016D914A
:1003C0008D01D601ED91FC910190F081E02DC601E7
:1003D0000995892B11F47E0102C02196ECCFC7014B
:1003E000DF91CF911F910F91FF90EF90DF90CF9011
:1003F0000895FC01918D828D981761F0828DDF0147
:10040000A80FB11D5D968C91928D9F5F9F73928F07
:1004100090E008958FEF9FEF0895FC01918D828DFC
:10042000981731F0828DE80FF11D858D90E00895C9
:100430008FEF9FEF0895FC01918D228D892F90E021
:10044000805C9F4F821B91098F739927089583E0E9
:1004500093E00E941B0221E0892B09F420E0822F07
:100460000895FC01848DDF01A80FB11DA35ABF4F71
:100470002C91848D90E001968F739927848FA689A3
:10048000B7892C93A089B1898C9180648C93938DCA
:10049000848D981306C00288F389E02D80818F7DBA
:1004A00080830895EF92FF920F931F93CF93DF9372
:1004B000EC0181E0888F9B8D8C8D981305C0E889B5
:1004C000F989808185FD24C0F62E0B8D10E00F5F29
:1004D0001F4F0F731127E02E8C8DE8120CC00FB642
:1004E00007FCFACFE889F989808185FFF5CFCE0135
:1004F0000E943102F1CF8B8DFE01E80FF11DE35A0E
:10050000FF4FF0820B8FEA89FB898081806207C0F0
:10051000EE89FF896083E889F9898081806480831E
:1005200081E090E0DF91CF911F910F91FF90EF90CC
:100530000895CF93DF93EC01888D8823C9F0EA8971
:10054000FB89808185FD05C0A889B9898C9186FDCC
:100550000FC00FB607FCF5CF808185FFF2CFA889C9
:10056000B9898C9185FFEDCFCE010E943102E7CF92
:10057000DF91CF91089580E090E0892B29F00E94CF
:10058000270281110C9400000895009769F0FC0186
:1005900001900020E9F73197AF01481B590BBC01CE
:1005A00083E093E00C94CE0180E090E00895CF9337
:1005B000DF930E94C502EC0184E191E00E94C50234
:1005C0008C0F9D1FDF91CF9108950F931F93CF93B1
:1005D000DF93EC01062F142F8A31910511F154F4A9
:1005E00086319105A1F0489731F51092E7021092FB
:1005F000E60225C08E31910579F080329105B1F087
:100600004C97C9F41092D1021092D00218C01092E7
:10061000F1021092F00213C01092D5021092D4028F
:100620000EC01092E5021092E40209C01092E3029B
:100630001092E20204C087E191E00E94D70260E0DC
:100640008C2F0E94870060E0802F0E94870060E06E
:10065000812F0E9487001092E102DF91CF911F91BC
:100660000F9108958091DE029091DF020197F1F0E1
:100670002091F6023091F7028091EE029091EF0204
:100680002817390761F48091E102811108C044E024
:1006900050E067E170E086E190E00C94E502809123
:1006A000F0029091F1028230910531F48091F602CE
:1006B0009091F702019607C0019751F48091F602DC
:1006C0009091F70201979093F7028093F6020895B4
:1006D00008958091D8029091D9020197F1F020916C
:1006E000F8023091F9028091E8029091E90228170E
:1006F000390761F48091E102811108C046E050E0C1
:100700006BE170E08AE190E00C94E5028091E402F4
:100710009091E5028230910531F48091F802909138
:10072000F90201960EC0019789F48091F802909128
:10073000F9021816190654F48091F8029091F90202
:1007400001979093F9028093F8020895089580919B
:10075000DC029091DD020197F1F02091F2023091DC
:10076000F3028091EA029091EB022817390761F4B5
:100770008091E102811108C049E050E061E270E03F
:1007800080E290E00C94E5028091E2029091E30215
:100790008230910531F48091F2029091F30201963A
:1007A0000EC0019789F48091F2029091F30218161D
:1007B000190654F48091F2029091F30201979093FC
:1007C000F3028093F202089508958091D6029091E9
:1007D000D702892B41F448E050E06FE170E08EE1F0
:1007E00090E00C94E5028091D4029091D502823081
:1007F000910531F48091D6029091D70201960EC0F6
:10080000019789F48091D6029091D70218161906A3
:1008100074F48091D6029091D70201979093D702F9
:100820008093D60208958AE291E00C94D70208954D
:100830008091D2029091D302892B41F447E050E09D
:100840006DE170E08CE190E00C94E5028091D002C3
:100850009091D1028230910531F48091D202909131
:10086000D30201960EC0019789F48091D202909133
:10087000D3021816190674F48091D2029091D30213
:1008800001979093D3028093D202089582E591E07C
:100890000C94D70208958A31910511F154F48631F0
:1008A0009105A1F0489731F57093E7026093E60255
:1008B00008958E31910579F080329105B1F04C9711
:1008C000C9F47093D1026093D00208957093F1023D
:1008D0006093F00208957093D5026093D402089556
:1008E0007093E5026093E40208957093E3026093CD
:1008F000E202089587E191E00C94D702EF92FF9213
:100900000F931F93CF93DF931F92CDB7DEB7F82ECF
:10091000E62E890161E070E049830E944B04B80132
:100920004981842F0E940F0160E08F2D0E94870073
:1009300061E08E2D0E94870081E08093E1020F909C
:10094000DF91CF911F910F91FF90EF900895EF925B
:10095000FF920F931F93CF93DF931F92CDB7DEB714
:10096000F82EE62E890162E070E049830E944B0474
:10097000B8014981842F0E940F0161E08F2D0E94F0
:10098000870060E08E2D0E94870081E08093E10265
:100990000F90DF91CF911F910F91FF90EF900895ED
:1009A000CF92DF92EF920F93CF93DC01C22F932F60
:1009B0001092E1026D937C93FA0120813181261718
:1009C00037077CF462E070E08C2F0E944B04B60184
:1009D0008E2D0E940F0161E08C2F0E94870060E045
:1009E00014C0FA012081318162177307B4F461E009
:1009F00070E08C2F0E944B04B6018E2D0E940F01D7
:100A000060E08C2F0E94870061E0802FCF910F91D2
:100A1000EF90DF90CF900C948700CF910F91EF90E3
:100A2000DF90CF900895CF92DF92EF92FF920F93D5
:100A30001F938091DA029091DB02019701F580917A
:100A4000F4029091F50201969093F5028093F402DE
:100A50006091CE027091CF02685E7D4F8CE3C82E0C
:100A6000D12C99E0E92EF12C01E210E020E230E0F7
:100A700042EF52E08AEE92E00E94D0042DC0209115
:100A8000F4023091F5028091EC029091ED0228176A
:100A9000390791F48091E10281110EC045E050E0E8
:100AA00069E170E088E190E01F910F91FF90EF9075
:100AB000DF90CF900C94E5028091E6029091E702DE
:100AC00082309105C9F48091F4029091F50201966B
:100AD0009093F5028093F4028091F4029091F502D4
:100AE00063E070E00E94E40A892B21F58091CE0238
:100AF0009091CF0201961AC00197E1F48091F4021F
:100B00009091F50201979093F5028093F402809101
:100B1000F4029091F50263E070E00E94E40A892BF0
:100B200049F48091CE029091CF0201979093CF0229
:100B30008093CE021F910F91FF90EF90DF90CF90A6
:100B400008958F929F92AF92BF92CF92DF92EF92D1
:100B5000FF920F931F93CF93DF93CDB7DEB7A1978B
:100B60000FB6F894DEBF0FBECDBF6C01990FEE0833
:100B7000FF08F7FE31C0E0910303F09104030190F8
:100B8000F081E02D6DE283E093E009958C0122274E
:100B90003327A9012C193D094E095F0919A2CE017D
:100BA00081967C019AE0892E912CA12CB12CCA014E
:100BB000B901A50194010E94F80A605DF7016293F2
:100BC0007F01211531054105510589F7CF010E94AB
:100BD000C502080F191F1EC0A701960119A28E0198
:100BE0000F5D1F4F8AE0C82ED12CE12CF12CCA01D9
:100BF000B901A70196010E94F80A605DF8016293AD
:100C00008F01211531054105510589F7CF010E945A
:100C1000C5028C0184E191E00E94C502800F911F02
:100C2000A1960FB6F894DEBF0FBECDBFDF91CF9176
:100C30001F910F91FF90EF90DF90CF90BF90AF90FA
:100C40009F908F9008956F927F928F929F92AF9214
:100C5000BF92CF92DF92EF92FF920F931F93CF93A9
:100C6000DF934C015B01EA01122F81E090E0F40177
:100C7000918380838091DE029091DF020E94A10522
:100C800066246A94762CF5018081918186159705FA
:100C9000A9F1F50160807180B701CE010E944B047B
:100CA000B601802F0E940F01F2E0EF16F10431F43B
:100CB00061E08C2F0E94870060E009C081E0E816A7
:100CC000F10441F460E08C2F0E94870061E0812FE5
:100CD0000E94870064E670E080E090E00E9493014B
:100CE00060E08C2F0E94870060E0812F0E948700C7
:100CF00060E070E0802F0E940F01C5CFF2E0EF1698
:100D0000F104A1F4C631D10531F0C831D10549F45F
:100D100082E799E002C086E49AE0F501918380833E
:100D200008C088E791E00E94D70203C0F501118254
:100D300010828091DE029091DF020E94A105F401F1
:100D400011821082CA31D105D1F044F4C631D105E7
:100D500081F06897D1F482EA91E019C0CE31D105D3
:100D600059F0C032D10571F06C9779F487EB91E0BE
:100D70000EC08AE891E00BC08CEC91E008C084EED4
:100D800091E005C087EF91E002C08AE092E0DF9138
:100D9000CF911F910F91FF90EF90DF90CF90BF9078
:100DA000AF909F908F907F906F900C94D702CF92CE
:100DB000DF92EF92FF920F931F9386E4C82ED12CFF
:100DC000EE24E394F12C09E010E021E230E040E26F
:100DD00050E062EF72E08CED92E00E9423062AE57B
:100DE000C22ED12C39E0E32EF12C01E210E020E2FA
:100DF00030E042EF52E068E172E08AEE92E00E9459
:100E0000D00460E971E080E090E00E94930147E83F
:100E1000C42ED12CEE24E394F12C04E010E027E161
:100E200030E046E150E066EF72E08EED92E00E9425
:100E3000230664E873E080E090E00E94930166E995
:100E4000C62ED12C72E0E72EF12C05E010E029E14E
:100E500030E048E150E064EF72E08AED92E00E94F9
:100E60002306E4EBCE2ED12CF4E0EF2EF12C07E19B
:100E700010E026E130E046EF52E063E275E08EEEEE
:100E800092E00E94D004A8E7CA2ED12CB5E0EB2E48
:100E9000F12C09E110E028E130E044EF52E069EB89
:100EA00074E08CEE92E00E94D00411E4C12ED12CAB
:100EB00009E0E02EF12C01E210E020E230E042EF08
:100EC00052E068E172E08AEE92E00E94D00468E6A7
:100ED00070E180E090E00E94930180EFC82ED12C59
:100EE000EE24E394F12C06E010E02BE130E04AE13F
:100EF00050E068EF72E088ED92E00E9423062AEF4E
:100F0000C22ED12C36E0E32EF12C0BE110E02AE1C9
:100F100030E048EF52E060E971E088EE92E00E9434
:100F2000D00468EB7BE080E090E00E9493018FE1C9
:100F300092E01F910F91FF90EF90DF90CF900C9473
:100F4000D7020E94340B1F920F920FB60F921124FA
:100F50002F933F938F939F93AF93BF938091FB0207
:100F60009091FC02A091FD02B091FE023091FA0234
:100F700023E0230F2D3720F40196A11DB11D05C0DC
:100F800026E8230F0296A11DB11D2093FA0280933B
:100F9000FB029093FC02A093FD02B093FE028091AD
:100FA000FF0290910003A0910103B091020301960A
:100FB000A11DB11D8093FF0290930003A093010334
:100FC000B0930203BF91AF919F918F913F912F9169
:100FD0000F900FBE0F901F9018951F920F920FB693
:100FE0000F9211242F933F934F935F936F937F93AF
:100FF0008F939F93AF93BF93EF93FF93E091020181
:10100000F09103010995FF91EF91BF91AF919F91ED
:101010008F917F916F915F914F913F912F910F90A1
:101020000FBE0F901F9018951F920F920FB60F9240
:1010300011242F933F934F935F936F937F938F93DD
:101040009F93AF93BF93EF93FF93E0910001F091D3
:1010500001010995FF91EF91BF91AF919F918F9100
:101060007F916F915F914F913F912F910F900FBEA4
:101070000F901F9018951F920F920FB60F92112488
:101080002F933F934F935F936F937F938F939F9390
:10109000AF93BF93EF93FF9383E093E00E943102FD
:1010A000FF91EF91BF91AF919F918F917F916F9140
:1010B0005F914F913F912F910F900FBE0F901F9016
:1010C00018951F920F920FB60F9211242F938F93A2
:1010D0009F93EF93FF93E0911303F09114038081AA
:1010E000E0911903F0911A0382FD12C09081809162
:1010F0001C038F5F8F7320911D03821751F0E091C5
:101100001C03F0E0ED5FFC4F958F80931C0301C042
:101110008081FF91EF919F918F912F910F900FBE42
:101120000F901F901895789484B5826084BD84B523
:10113000816084BD85B5826085BD85B5816085BDD2
:1011400080916E00816080936E001092810080918A
:101150008100826080938100809181008160809312
:101160008100809180008160809380008091B10037
:1011700084608093B1008091B00081608093B00062
:1011800080917A00846080937A0080917A008260F6
:1011900080937A0080917A00816080937A008091B8
:1011A0007A00806880937A001092C100C4E061E008
:1011B0008C2F0E94D300CF5FCA30C9F7C6E161E02F
:1011C0008C2F0E94D300CF5FC232C9F762E082E069
:1011D0000E94D30062E083E00E94D30062E085E1D8
:1011E0000E94D30062E082E10E94D30062E083E1CA
:1011F0000E94D30062E084E10E94D30060E08EE0B0
:101200000E94D300E0911303F091140382E08083E5
:10121000E0910F03F09110031082E0911103F0911F
:1012200012038FEC808310921B03E0911703F0915F
:10123000180386E08083E0911503F0911603808106
:1012400080618083E0911503F091160380818860AE
:101250008083E0911503F09116038081806880837C
:10126000E0911503F091160380818F7D808382E3E6
:1012700093E0909301018093000180916900836065
:1012800080936900E89A83E195E09093030180934D
:101290000201809169008C6080936900E99A0E9444
:1012A000D706D1E083E093E00E941B0218161906CE
:1012B0000CF05AC183E093E00E94F901C82FE0913D
:1012C0000303F09104030190F081E02D682F83E087
:1012D00093E0099584E191E00E94C502CC3609F4BF
:1012E000DDC00CF079C0C23609F405C10CF053C062
:1012F000C93409F42FC1C13609F032C187E492E044
:101300000E94D70284EBC82ED12C94E0E92EF12C58
:1013100007E110E026E130E046EF52E063E275E0DD
:101320008EEE92E00E94D00428E7C22ED12C35E048
:10133000E32EF12C09E110E028E130E044EF52E027
:1013400069EB74E08CEE92E00E94D00441E4C42E7C
:10135000D12C59E0E52EF12C01E210E020E230E042
:1013600042EF52E068E172E08AEE92E00E94D0041F
:101370006AEFC62ED12C76E0E72EF12C0BE110E0BF
:101380002AE130E048EF52E066E572E088EE92E054
:101390000E94D0047CC0C43609F49EC00CF4CEC0B8
:1013A000C63609F0DDC024EB30E044E050E067E1F0
:1013B00070E086E190E00E94A70428E730E045E075
:1013C00050E069E170E088E190E00E947E04D093F3
:1013D000E00289E892E0C6C0C53709F46EC0B4F4F3
:1013E000C33711F10CF0AFC0C23709F0B9C021E426
:1013F00030E049E050E061E270E080E290E00E947D
:10140000A704D093E1028AE592E0ACC0C83709F4A2
:1014100090C0CA3709F488C0C63709F0A1C08091CE
:10142000F2029091F30293C083E392E00E94D7020C
:10143000C6E160E08C2F0E948700CF5FC332C9F7FE
:10144000C4E060E070E08C2F0E940F01CF5FCA30D3
:10145000C1F783E392E086C08091F0029091F1029F
:10146000892B09F481C08091E4029091E502892BD7
:1014700009F47AC08091E2029091E302892B09F489
:1014800073C064E670E080E090E00E949301809178
:10149000E6029091E702892BF9F666C021E430E07C
:1014A00049E050E061E270E080E290E00E947E045A
:1014B000D093E10287E692E055C02AEF30E046E0A3
:1014C00050E06BE170E08AE190E00E94A704D093C5
:1014D000E10283E792E046C02AEF30E046E050E0C8
:1014E0006BE170E08AE190E00E947E04D093E1021B
:1014F0008DE792E037C024EB30E044E050E067E154
:1015000070E086E190E00E947E0428E730E045E04C
:1015100050E069E170E088E190E00E94A704D09378
:10152000E00288E992E01EC08091F8029091F902F1
:101530000EC08091F6029091F70209C08091F402EA
:101540009091F50204C08091F0029091F1020E9406
:10155000A1050AC089EA92E00E94D7020E94D7063C
:101560008CEB92E00E94D7020E94BB029BCEE3E08C
:10157000F3E01382128288EE93E0A0E0B0E084836F
:101580009583A683B78388E091E09183808385EC7F
:1015900090E09587848784EC90E09787868780EC3D
:1015A00090E0918B808B81EC90E0938B828B82EC2E
:1015B00090E0958B848B86EC90E0978B868B118ED8
:1015C000128E138E148E089597FB072E16F4009436
:1015D00007D077FD09D00E941A0B07FC05D03EF416
:1015E000909581959F4F0895709561957F4F0895CF
:1015F000A1E21A2EAA1BBB1BFD010DC0AA1FBB1F17
:10160000EE1FFF1FA217B307E407F50720F0A21B88
:10161000B30BE40BF50B661F771F881F991F1A94F5
:1016200069F760957095809590959B01AC01BD011F
:10163000CF010895AA1BBB1B51E107C0AA1FBB1F06
:10164000A617B70710F0A61BB70B881F991F5A954E
:10165000A9F780959095BC01CD010895EE0FFF1F6D
:101660000590F491E02D099481E090E0F8940C94B9
:06167000390BF894FFCFD6
:10167600CD01CD01000000005202CE011B02F9018E
:101686000D0299020D0A006572726F72206F6E204C
:10169600646972656374696F6E00536F6D65746813
:1016A600696E6720696E2077726973744C4820658D
:1016B6006E636F6465722077656E742077726F6EE5
:1016C6006700536F6D657468696E6720696E207771
:1016D6007269737420656E636F6465722077656ED8
:1016E600742077726F6E6700696E6974207377690C
:1016F600746368206572726F720053686F756C64EC
:10170600657220736574757020636F6D706C657497
:101716006500656C626F7720736574757020636F02
:101726006D706C6574650077726973742073657487
:10173600757020636F6D706C6574650057726973A0
:1017460074204C4820736574757020636F6D706CDF
:10175600657465005A656420736574757020636FDF
:101766006D706C657465007961772073657475704A
:1017760020636F6D706C65746500696E697420779F
:10178600656E7420766572792077726F6E67006178
:101796006C6C2073657475707320636F6D706C6507
:1017A60074650053746F7070696E6720616C6C208D
:1017B6006D6F746F727300726573657474696E67AA
:1017C60020706F736974696F6E006D6F76696E67EE
:1017D600205269676874006D6F76696E67206C6564
:1017E6006674006D6F76696E67207570006D6F7632
:1017F600696E6720646F776E006D6F76696E67201D
:10180600666F7277617264006D6F76696E672062CB
:1018160061636B776172647300696E697469616C88
:101826006973696E6720526F626F7400696E7661C4
:0C1836006C696420636F6D6D616E64006E
:00000001FF
