:100000000C947C010C94630A0C94380A0C940D0A2D
:100010000C94E2090C94B7090C948C090C946109B6
:100020000C9436090C94AD010C94AD010C94AD0107
:100030000C94AD010C94AD010C94AD010C94AD0188
:100040000C94AD010C94AD010C94AD010C94AD0178
:100050000C94AD010C94AD010C94AD010C94EC0822
:100060000C94AD010C9405060C94DB050C94AD01C9
:100070000C94AD010C94AD010C94AD010C94AD0148
:100080000C94AD010C94AD010C94AD010C94AD0138
:100090000C94AD010C94AD010C94AD010C94AD0128
:1000A0000C94AD010C94AD010C94AD010C94AD0118
:1000B0000C94AD010C94AD010C94AD010C94AD0108
:1000C0000C94AD010C94AD010C94AD010C94AD01F8
:1000D0000C94AD010C94AD010C94AD010C94AD01E8
:1000E0000C94AD015F07620751075507590799073F
:1000F00066076A077007740778077E078207860716
:1001000099078C0790079407120817081C082608FF
:100110003008A9083A0842084A0854085E086808E6
:1001200077088108A9088B0895089F080C9462023B
:100130000C9460060C9466040C948C070C943A089A
:100140000C9470070C948B080C945E080C944A086D
:100150000C9412080C949F080C9430080C945907C6
:100160000C9466070C945F070C9495080C94810816
:100170000C9417080C9468080C9490070C94D60102
:100180000C94F1030C9461060C94C2010C94860744
:100190000C944D050C947E070C946A070C9428046B
:1001A0000C9442080C94A9080C9426080C94990706
:1001B0000C9482070C941B020C94B3010C94D7048A
:1001C0000C941C080C9454080C9477080C94A40408
:1001D0000C9462070C94680C0C94E4010C94940742
:1001E0000C9455070C9474070C9478070C945107E1
:1001F00000002100240027002A002D0030003300D9
:1002000001010000040107010A010000220025008D
:1002100028002B002E0031003400020100000501EF
:1002200008010B0105050505070508080808020275
:1002300002020A0A08080404040401010101010180
:1002400001010303030303030303040707070C0C63
:100250000C0C0C0C0C0C020202020606060606062A
:1002600006060B0B0B0B0B0B0B0B010210202008CF
:100270000810204010204080020102010804020101
:100280000102040810204080804020100804020170
:1002900080040201804020100804020108040201C9
:1002A0000102040810204080010204081020408050
:1002B00000000A0B02090C0D0E08070304010000E0
:1002C000000000000000000000000000000000002E
:1002D00000000000000000000000000012111000EB
:1002E000000000000000000000000000000000000E
:1002F000000000000000680C11241FBECFEFD1E207
:10030000DEBFCDBF00E00CBF24E0A2E4B3E001C03B
:100310001D92A531B207E1F713E0A0E0B2E0ECEDE9
:10032000F9E100E00BBF02C007900D92A234B107C3
:10033000D9F711E0CCE7D1E000E006C02197010930
:10034000802FFE010E94CB0CCB37D10780E008073D
:10035000A9F70E948E0A0C94EC0C0C9400000895EE
:1003600080E090E00895FC01538D448D252F30E00E
:10037000842F90E0821B930B541710F0CF960895B2
:1003800001970895FC01918D828D981761F0828DFF
:10039000DF01A80FB11D5D968C91928D9F5F9F73B9
:1003A000928F90E008958FEF9FEF0895FC01918D5B
:1003B000828D981731F0828DE80FF11D858D90E0C8
:1003C00008958FEF9FEF0895FC01918D228D892F65
:1003D00090E0805C9F4F821B91098F73992708954D
:1003E0008FE693E00E94E40121E0892B09F420E0EC
:1003F000822F0895FC01848DDF01A80FB11DA35A3F
:10040000BF4F2C91848D90E001968F739927848F34
:10041000A689B7892C93A089B1898C9180648C932B
:10042000938D848D981306C00288F389E02D808116
:100430008F7D80830895EF92FF920F931F93CF9348
:10044000DF93EC0181E0888F9B8D8C8D981305C024
:10045000E889F989808185FD24C0F62E0B8D10E096
:100460000F5F1F4F0F731127E02E8C8DE8120CC009
:100470000FB607FCFACFE889F989808185FFF5CFAF
:10048000CE010E94FA01F1CF8B8DFE01E80FF11D24
:10049000E35AFF4FF0820B8FEA89FB8980818062EB
:1004A00007C0EE89FF896083E889F98980818064CB
:1004B000808381E090E0DF91CF911F910F91FF90B9
:1004C000EF900895CF93DF93EC01888D8823C9F0D6
:1004D000EA89FB89808185FD05C0A889B9898C914D
:1004E00086FD0FC00FB607FCF5CF808185FFF2CFE8
:1004F000A889B9898C9185FFEDCFCE010E94FA01C0
:10050000E7CFDF91CF91089580E090E0892B21F033
:100510000E94F001811125C080E090E0892B41F01C
:1005200080E090E0892B21F00E94000081111CC026
:1005300080E090E0892B41F080E090E0892B21F071
:100540000E940000811113C080E090E0892BA1F08F
:1005500080E090E0892B81F00E94000081110AC0A8
:1005600008950E940000D8CF0E940000E1CF0E94B1
:100570000000EACF0C94000008958A31910511F132
:1005800054F486319105A1F0489731F570934703F3
:100590006093460308958E31910579F0803291057C
:1005A000B1F04C97C9F470934B0360934A030895DC
:1005B0007093450360934403089570934F036093D1
:1005C0004E030895709353036093520308957093FC
:1005D000550360935403089582E292E00C94A006C0
:1005E0006F927F928F929F92AF92BF92CF92DF9243
:1005F000EF92FF920F931F93CF93DF934C015B0118
:10060000EA01122F81E090E0F401918380838091D0
:100610006703909168030E94AE0666246A94762C64
:10062000F5018081918186159705A9F1F50160801A
:100630007180B701CE010E94BD02B601802F0E94D9
:10064000E907F2E0EF16F10431F461E08C2F0E942B
:10065000300760E009C081E0E816F10441F460E091
:100660008C2F0E94300761E0812F0E94300764E6E2
:1006700070E080E090E00E94B20860E08C2F0E9461
:10068000300760E0812F0E94300760E070E0802F2B
:100690000E94E907C5CFF2E0EF16F104A1F4C631DC
:1006A000D10531F0C831D10549F482E799E002C0A3
:1006B00086E49AE0F5019183808308C085E392E0A7
:1006C0000E94A00603C0F501118210828091670389
:1006D000909168030E94AE06F40111821082CA3123
:1006E000D105D1F044F4C631D10581F06897D1F439
:1006F0008FE592E019C0CE31D10559F0C032D10555
:1007000071F06C9779F484E792E00EC087E492E090
:100710000BC089E892E008C081EA92E005C084EB52
:1007200092E002C087EC92E0DF91CF911F910F9190
:10073000FF90EF90DF90CF90BF90AF909F908F9001
:100740007F906F900C94A0060F931F93CF93DF932D
:10075000EC01062F142F8A31910511F154F48631E2
:100760009105A1F0489731F5109247031092460386
:1007700025C08E31910579F080329105B1F04C970A
:10078000C9F410924B0310924A0318C0109245030B
:100790001092440313C010924F0310924E030EC0E8
:1007A000109253031092520309C0109255031092F5
:1007B000540304C082E292E00E94A00660E08C2F05
:1007C0000E94300760E0802F0E94300760E0812F98
:1007D0000E94300710925603DF91CF911F910F9125
:1007E000089580916703909168030197F1F020913B
:1007F00065033091660380915F0390916003281731
:10080000390761F480915603811108C044E050E03B
:1008100067E170E086E190E00C94A40380914403CA
:10082000909145038230910531F480916503909158
:100830006603019607C0019751F48091650390917A
:100840006603019790936603809365030895089566
:1008500080915B0390915C030197F1F02091590323
:1008600030915A0380915703909158032817390704
:1008700061F480915603811108C046E050E06BE1BD
:1008800070E08AE190E00C94A4038091520390916F
:1008900053038230910531F48091590390915A03AA
:1008A00001960EC0019789F48091590390915A03E3
:1008B0001816190654F48091590390915A03019720
:1008C00090935A03809359030895089580916D037E
:1008D00090916E030197F1F020916B0330916C03BE
:1008E0008091690390916A032817390761F4809118
:1008F0005603811108C049E050E061E270E080E2F7
:1009000090E00C94A403809154039091550382309D
:10091000910531F480916B0390916C0301960EC0A8
:10092000019789F480916B0390916C031816190656
:1009300054F480916B0390916C03019790936C0336
:1009400080936B0308950895809150039091510313
:10095000892B41F448E050E06FE170E08EE190E0D7
:100960000C94A40380914E0390914F038230910523
:1009700031F4809150039091510301960EC001977C
:1009800089F480915003909151031816190674F45C
:10099000809150039091510301979093510380935C
:1009A000500308958CED92E00C94A0060895809178
:1009B0004C0390914D03892B41F447E050E06DE1E9
:1009C00070E08CE190E00C94A40380914A03909134
:1009D0004B038230910531F480914C0390914D038B
:1009E00001960EC0019789F480914C0390914D03BC
:1009F0001816190674F480914C0390914D030197D9
:100A000090934D0380934C03089584E093E00C94FD
:100A1000A0060895CF92DF92EF920F93CF93DC015F
:100A2000C22F932F109256036D937C93FA0120816D
:100A30003181261737077CF462E070E08C2F0E942A
:100A4000BD02B6018E2D0E94E90761E08C2F0E9445
:100A5000300760E014C0FA0120813181621773070A
:100A6000B4F461E070E08C2F0E94BD02B6018E2DBF
:100A70000E94E90760E08C2F0E94300761E0802F20
:100A8000CF910F91EF90DF90CF900C943007CF91E2
:100A90000F91EF90DF90CF900895CF92DF92EF9279
:100AA000FF920F931F9380916303909164030197CA
:100AB00001F5809161039091620301969093620326
:100AC0008093610360914803709149036A5D7D4F93
:100AD0008CE3C82ED12C99E0E92EF12C01E210E034
:100AE00020E230E04BE653E089E693E00E940A05FD
:100AF0002DC0209161033091620380915D0390913C
:100B00005E032817390791F48091560381110EC0B6
:100B100045E050E069E170E088E190E01F910F91BD
:100B2000FF90EF90DF90CF900C94A4038091460348
:100B30009091470382309105C9F4809161039091AF
:100B40006203019690936203809361038091610335
:100B50009091620363E070E00E94950C892B21F56F
:100B6000809148039091490301961AC00197E1F4DE
:100B70008091610390916203019790936203809347
:100B80006103809161039091620363E070E00E94D1
:100B9000950C892B49F48091480390914903019762
:100BA00090934903809348031F910F91FF90EF901A
:100BB000DF90CF9008951F920F920FB60F921124DD
:100BC0000BB60F922F933F934F935F936F937F9347
:100BD0008F939F93AF93BF93EF93FF938FE693E031
:100BE0000E94FA01FF91EF91BF91AF919F918F9178
:100BF0007F916F915F914F913F912F910F900BBE1D
:100C00000F900FBE0F901F9018951F920F920FB666
:100C10000F9211240BB60F922F938F939F93EF9304
:100C2000FF93E0917F03F09180038081E091850341
:100C3000F091860382FD12C09081809188038F5FBE
:100C40008F7320918903821751F0E0918803F0E0BF
:100C5000E159FC4F958F8093880301C08081FF91FB
:100C6000EF919F918F912F910F900BBE0F900FBE20
:100C70000F901F9018953FB7F894809111049091B0
:100C80001204A0911304B091140426B5A89B05C0CA
:100C90002F3F19F00196A11DB11D3FBFBA2FA92FFB
:100CA000982F8827820F911DA11DB11DBC01CD0178
:100CB00042E0660F771F881F991F4A95D1F7089564
:100CC0000895CF92DF92EF92FF920F931F93CF93ED
:100CD000DF936C017A018B01C0E0D0E0CE15DF0517
:100CE00089F0D8016D918D01D601ED91FC910190B3
:100CF000F081E02DC6011995892B11F47E0102C007
:100D00002196ECCFC701DF91CF911F910F91FF90FA
:100D1000EF90DF90CF900895009769F0FC0101906B
:100D20000020E9F73197AF01481B590BBC018FE652
:100D300093E00C94610680E090E008950E94E70C37
:100D4000CF93DF930E948C06EC018EE393E00E9428
:100D50008C068C0F9D1FDF91CF9108958F929F92EB
:100D6000AF92BF92CF92DF92EF92FF920F931F93B9
:100D7000CF93DF93CDB7DEB7A1970FB6F894DEBF60
:100D80000FBECDBF6C01990FEE08FF08F7FE31C012
:100D9000E0916F03F09170030190F081E02D6DE21E
:100DA0008FE693E019958C0122273327A9012C198E
:100DB0003D094E095F0919A2CE0181967C019AE096
:100DC000892E912CA12CB12CCA01B901A501940145
:100DD0000E94A90C605DF70162937F012115310526
:100DE0004105510589F7CF010E948C06080F191F94
:100DF0001EC0A701960119A28E010F5D1F4F8AE048
:100E0000C82ED12CE12CF12CCA01B901A701960101
:100E10000E94A90C605DF80162938F0121153105D4
:100E20004105510589F7CF010E948C068C018EE3A4
:100E300093E00E948C06800F911FA1960FB6F89444
:100E4000DEBF0FBECDBFDF91CF911F910F91FF90FD
:100E5000EF90DF90CF90BF90AF909F908F900895CC
:100E6000362F90E0FC01E055FD4F4491FC01E6591E
:100E7000FD4F2491FC01EC5DFD4F9491992309F401
:100E80006BC0442309F455C050E0FA013197E231B8
:100E9000F10508F04EC08827EE58FF4F8F4F0C9495
:100EA000CB0C809180008F7707C0809180008F7D70
:100EB00003C080918000877F809380003AC084B512
:100EC0008F7702C084B58F7D84BD33C08091B00020
:100ED0008F7703C08091B0008F7D8093B00029C0D0
:100EE000809190008F7707C0809190008F7D03C024
:100EF00080919000877F809390001BC08091A0001C
:100F00008F7707C08091A0008F7D03C08091A000E3
:100F1000877F8093A0000DC0809120018F7707C04C
:100F2000809120018F7D03C080912001877F809375
:100F30002001E92FF0E0EE0FFF1FE65FFD4FA591C6
:100F4000B4918FB7F894EC91311103C020952E2302
:100F500001C02E2B2C938FBF0895CF93DF9390E089
:100F6000FC01E659FD4F2491FC01EC5DFD4F84919D
:100F7000882361F190E0880F991FFC01E051FE4F3A
:100F8000C591D491FC01E65FFD4FA591B49161112B
:100F900009C09FB7F8948881209582238883EC91BB
:100FA0002E230BC0623061F49FB7F8943881822FF2
:100FB000809583238883EC912E2B2C939FBF06C0B2
:100FC0008FB7F894E8812E2B28838FBFDF91CF91C4
:100FD00008951F93CF93DF93182FEB0161E00E94D8
:100FE000AD07209711F460E004C0CF3FD10539F47C
:100FF00061E0812FDF91CF911F910C943007E12F99
:10100000F0E0E055FD4FE4914E2F50E0FA013197AA
:10101000E231F10508F09DC08827EC57FF4F8F4F54
:101020000C94CB0C84B5806884BDC7BD97C084B5D3
:10103000806284BDC8BD92C080918000806880932A
:101040008000D0938900C093880088C08091800080
:10105000806280938000D0938B00C0938A007EC012
:1010600080918000886080938000D0938D00C09331
:101070008C0074C08091B00080688093B000C093F1
:10108000B3006CC08091B00080628093B000C093C8
:10109000B40064C080919000806880939000D093E9
:1010A0009900C09398005AC080919000806280930C
:1010B0009000D0939B00C0939A0050C08091900004
:1010C000886080939000D0939D00C0939C0046C0A0
:1010D0008091A00080688093A0008091A0008F7B09
:1010E0008093A000D093A900C093A80037C080913E
:1010F000A00080628093A000D093AB00C093AA00B0
:101100002DC08091A00088608093A000D093AD0096
:10111000C093AC0023C0809120018068809320019F
:10112000D0932901C093280119C0809120018062C9
:1011300080932001D0932B01C0932A010FC080918E
:101140002001886080932001D0932D01C0932C0151
:1011500005C0C038D1050CF04BCF45CFDF91CF9102
:101160001F9108958F929F92AF92BF92CF92DF927C
:10117000EF92FF926B017C010E943B064B015C01E8
:10118000C114D104E104F104F1F00E943B06DC013A
:10119000CB0188199909AA09BB09883E9340A1058A
:1011A000B10570F321E0C21AD108E108F10888EE18
:1011B000880E83E0981EA11CB11CC114D104E10467
:1011C000F10419F7DDCFFF90EF90DF90CF90BF9043
:1011D000AF909F908F9008951F920F920FB60F922D
:1011E00011242F933F938F939F93AF93BF9380913D
:1011F0000D0490910E04A0910F04B0911004309151
:101200000C0423E0230F2D3720F40196A11DB11DFE
:1012100005C026E8230F0296A11DB11D20930C04E2
:1012200080930D0490930E04A0930F04B0931004C8
:101230008091110490911204A0911304B0911404B0
:101240000196A11DB11D8093110490931204A093E7
:101250001304B0931404BF91AF919F918F913F916C
:101260002F910F900FBE0F901F9018951F920F9205
:101270000FB60F9211240BB60F922F933F934F93FB
:101280005F936F937F938F939F93AF93BF93EF93EE
:10129000FF93E0910E02F0910F021995FF91EF91EB
:1012A000BF91AF919F918F917F916F915F914F917E
:1012B0003F912F910F900BBE0F900FBE0F901F907C
:1012C00018951F920F920FB60F9211240BB60F9222
:1012D0002F933F934F935F936F937F938F939F933E
:1012E000AF93BF93EF93FF93E0910C02F0910D0247
:1012F0001995FF91EF91BF91AF919F918F917F9140
:101300006F915F914F913F912F910F900BBE0F9076
:101310000FBE0F901F9018951F920F920FB60F924D
:1013200011240BB60F922F933F934F935F936F93BC
:101330007F938F939F93AF93BF93EF93FF93E0912E
:101340000202F09103021995FF91EF91BF91AF91C5
:101350009F918F917F916F915F914F913F912F91CD
:101360000F900BBE0F900FBE0F901F9018951F92FD
:101370000F920FB60F9211240BB60F922F933F933B
:101380004F935F936F937F938F939F93AF93BF938D
:10139000EF93FF93E0910002F09101021995FF9104
:1013A000EF91BF91AF919F918F917F916F915F91DD
:1013B0004F913F912F910F900BBE0F900FBE0F904A
:1013C0001F9018951F920F920FB60F9211240BB613
:1013D0000F922F933F934F935F936F937F938F93CE
:1013E0009F93AF93BF93EF93FF93E0910A02F09125
:1013F0000B021995FF91EF91BF91AF919F918F9142
:101400007F916F915F914F913F912F910F900BBE04
:101410000F900FBE0F901F9018951F920F920FB64E
:101420000F9211240BB60F922F933F934F935F931C
:101430006F937F938F939F93AF93BF93EF93FF939C
:10144000E0910802F09109021995FF91EF91BF9187
:10145000AF919F918F917F916F915F914F913F914C
:101460002F910F900BBE0F900FBE0F901F901895ED
:101470001F920F920FB60F9211240BB60F922F935B
:101480003F934F935F936F937F938F939F93AF930C
:10149000BF93EF93FF93E0910602F0910702199535
:1014A000FF91EF91BF91AF919F918F917F916F913C
:1014B0005F914F913F912F910F900BBE0F900FBEF8
:1014C0000F901F9018951F920F920FB60F92112434
:1014D0000BB60F922F933F934F935F936F937F932E
:1014E0008F939F93AF93BF93EF93FF93E091040289
:1014F000F09105021995FF91EF91BF91AF919F91E6
:101500008F917F916F915F914F913F912F910F90AC
:101510000BBE0F900FBE0F901F901895789484B556
:10152000826084BD84B5816084BD85B5826085BDDF
:1015300085B5816085BD80916E00816080936E006D
:10154000109281008091810082608093810080915F
:101550008100816080938100809180008160809310
:1015600080008091B10084608093B1008091B000D0
:1015700081608093B000809191008260809391009F
:1015800080919100816080939100809190008160B2
:10159000809390008091A10082608093A10080914F
:1015A000A10081608093A1008091A0008160809360
:1015B000A00080912101826080932101809121010E
:1015C00081608093210180912001816080932001BE
:1015D00080917A00846080937A0080917A008260A2
:1015E00080937A0080917A00816080937A00809164
:1015F0007A00806880937A001092C100C4E061E0B4
:101600008C2F0E94AD07CF5FCA30C9F7C6E161E0F9
:101610008C2F0E94AD07CF5FC232C9F762E082E033
:101620000E94AD0762E083E00E94AD0762E085E1C1
:101630000E94AD0762E082E10E94AD0762E083E1B3
:101640000E94AD0762E084E10E94AD0760E08EE099
:101650000E94AD07E0917F03F091800382E08083D8
:10166000E0917B03F0917C031082E0917D03F09187
:101670007E038FEC808310928703E0918303F091C7
:10168000840386E08083E0918103F091820380816E
:1016900080618083E0918103F09182038081886082
:1016A0008083E0918103F091820380818068808350
:1016B000E0918103F091820380818F7D808381EFAF
:1016C00093E0909301028093000280916A0083600E
:1016D00080936A00EC9A8DE495E0909303028093E6
:1016E000020280916A008C6080936A00ED9A87ED17
:1016F00094E09093090280930802809169008063CE
:1017000080936900EA9A84EA94E0909307028093B8
:101710000602809169008C6080936900E99A88E2F2
:1017200094E090930B0280930A0280916900806C90
:1017300080936900EB9A86E694E09093050280938B
:10174000040280916900836080936900E89A86E4CE
:10175000C82ED12CEE24E394F12C09E010E021E214
:1017600030E040E250E06BE673E08DE693E00E94EB
:10177000F0022AE5C22ED12C39E0E32EF12C01E251
:1017800010E020E230E04BE653E066E272E089E6EA
:1017900093E00E940A0560E971E080E090E00E9419
:1017A000B20847E8C42ED12CEE24E394F12C04E0D7
:1017B00010E027E130E046E150E065E673E087E6BF
:1017C00093E00E94F00264E873E080E090E00E9401
:1017D000B20866E9C62ED12C72E0E72EF12C05E0A6
:1017E00010E029E130E048E150E061E673E083E693
:1017F00093E00E94F002E4EBCE2ED12CF4E0EF2E29
:10180000F12C07E110E026E130E045E653E063E229
:1018100075E08FE593E00E940A05A8E7CA2ED12C57
:10182000B5E0EB2EF12C09E110E028E130E041E6D3
:1018300053E069EB74E08DE593E00E940A05C1E492
:10184000CC2ED12C19E0E12EF12C01E210E020E2A7
:1018500030E04BE653E066E272E089E693E00E94F6
:101860000A0568E670E180E090E00E94B20800EFAF
:10187000C02ED12CEE24E394F12C06E010E02BE1F5
:1018800030E04AE150E069E573E08BE593E00E94C7
:10189000F0029AEFC92ED12C26E0E22EF12C0BE1BA
:1018A00010E02AE130E049E553E060E971E087E5C6
:1018B00093E00E940A0568EB7BE080E090E00E94E4
:1018C000B2088AE293E00E94A0060E948402FDCF43
:1018D000EFE6F3E01382128288EE93E0A0E0B0E03E
:1018E00084839583A683B78384E192E09183808388
:1018F00085EC90E09587848784EC90E097878687D5
:1019000080EC90E0918B808B81EC90E0938B828BCC
:1019100082EC90E0958B848B86EC90E0978B868BA5
:10192000118E128E138E148E089597FB072E16F4C7
:10193000009407D077FD09D00E94D30C07FC05D096
:101940003EF4909581959F4F0895709561957F4FD6
:101950000895A1E21A2EAA1BBB1BFD010DC0AA1FF0
:10196000BB1FEE1FFF1FA217B307E407F50720F008
:10197000A21BB30BE40BF50B661F771F881F991F83
:101980001A9469F760957095809590959B01AC01CC
:10199000BD01CF010895EE0FFF1F881F8BBF079079
:1019A000F691E02D1994AA1BBB1B51E107C0AA1F99
:1019B000BB1FA617B70710F0A61BB70B881F991FF0
:1019C0005A95A9F780959095BC01CD01089581E0C5
:0C19D00090E0F8940C94EC0CF894FFCF1D
:1019DC0060066006600660066006600660066006CB
:1019EC00000000001B026106B3016202E401C201A7
:1019FC00D6016572726F72206F6E206469726563B6
:101A0C0074696F6E00696E697420737769746368AA
:101A1C00206572726F720053686F756C646572200A
:101A2C00736574757020636F6D706C65746500659B
:101A3C006C626F7720736574757020636F6D706C5A
:101A4C0065746500777269737420736574757020A2
:101A5C00636F6D706C657465005772697374204C9C
:101A6C004820736574757020636F6D706C65746558
:101A7C00005A656420736574757020636F6D706CAB
:101A8C006574650079617720736574757020636F78
:101A9C006D706C65746500696E69742077656E7421
:101AAC0020766572792077726F6E6700536F6D6563
:101ABC007468696E6720696E2077726973744C481C
:101ACC0020656E636F6465722077656E7420777223
:101ADC006F6E6700536F6D657468696E6720696E11
:101AEC0020777269737420656E636F6465722077FA
:101AFC00656E742077726F6E6700616C6C20736515
:101B0C007475707320636F6D706C657465000D0A6D
:021B1C000000C7
:00000001FF
