:100000000C947C010C94890B0C945E0B0C94330BB8
:100010000C94080B0C94DD0A0C94B20A0C94870A19
:100020000C945C0A0C94AD010C94AD010C94AD01E0
:100030000C94AD010C94AD010C94AD010C94AD0188
:100040000C94AD010C94AD010C94AD010C94AD0178
:100050000C94AD010C94AD010C94AD010C94120AFA
:100060000C94AD010C942B070C9401070C94AD017A
:100070000C94AD010C94AD010C94AD010C94AD0148
:100080000C94AD010C94AD010C94AD010C94AD0138
:100090000C94AD010C94AD010C94AD010C94AD0128
:1000A0000C94AD010C94AD010C94AD010C94AD0118
:1000B0000C94AD010C94AD010C94AD010C94AD0108
:1000C0000C94AD010C94AD010C94AD010C94AD01F8
:1000D0000C94AD010C94AD010C94AD010C94AD01E8
:1000E0000C94AD018508880877087B087F08BF0855
:1000F0008C08900896089A089E08A408A808AC08DE
:10010000BF08B208B608BA0838093D0942094C09C7
:100110005609CF096009680970097A0984098E09AE
:100120009D09A709CF09B109BB09C5090C94620251
:100130000C9486070C94B2080C9460090C949608F1
:100140000C94B1090C9484090C9470090C9438092E
:100150000C94C5090C9456090C947F080C948C08D7
:100160000C9485080C94BB090C94A7090C943D09C8
:100170000C948E090C94B6080C94D6010C9442048D
:100180000C9404040C948F030C9487070C94C20104
:100190000C94AC080C94F5040C94A4080C949008EE
:1001A0000C94C6030C9468090C94CF090C944C0968
:1001B0000C94BF080C94A8080C941B020C94B30177
:1001C0000C9442090C947A090C949D090C948808AB
:1001D0000C94E4010C94BA080C94350E0C947B0832
:1001E0000C949A080C949E080C9475040C9477084F
:1001F00000002100240027002A002D0030003300D9
:1002000001010000040107010A010000220025008D
:1002100028002B002E0031003400020100000501EF
:1002200008010B0105050505070508080808020275
:1002300002020A0A08080404040401010101010180
:1002400001010303030303030303040707070C0C63
:100250000C0C0C0C0C0C020202020606060606062A
:1002600006060B0B0B0B0B0B0B0B010210202008CF
:100270000810204010204080020102010804020101
:100280000102040810204080804020100804020170
:1002900080040201804020100804020108040201C9
:1002A0000102040810204080010204081020408050
:1002B00000000A0B02090C0D0E08070304010000E0
:1002C000000000000000000000000000000000002E
:1002D00000000000000000000000000012111000EB
:1002E000000000000000000000000000000000000E
:1002F000000000000000350E11241FBECFEFD1E238
:10030000DEBFCDBF00E00CBF24E0A6EEB3E001C02D
:100310001D92AA3BB207E1F713E0A0E0B2E0E6E7E6
:10032000FDE100E00BBF02C007900D92A63EB107B1
:10033000D9F711E0CCE7D1E000E006C02197010930
:10034000802FFE010E94980ECB37D10780E008076E
:10035000A9F70E94B40B0C94B90E0C9400000895F8
:1003600080E090E00895FC01538D448D252F30E00E
:10037000842F90E0821B930B541710F0CF960895B2
:1003800001970895FC01918D828D981761F0828DFF
:10039000DF01A80FB11D5D968C91928D9F5F9F73B9
:1003A000928F90E008958FEF9FEF0895FC01918D5B
:1003B000828D981731F0828DE80FF11D858D90E0C8
:1003C00008958FEF9FEF0895FC01918D228D892F65
:1003D00090E0805C9F4F821B91098F73992708954D
:1003E00084E194E00E94E40121E0892B09F420E0FB
:1003F000822F0895FC01848DDF01A80FB11DA35A3F
:10040000BF4F2C91848D90E001968F739927848F34
:10041000A689B7892C93A089B1898C9180648C932B
:10042000938D848D981306C00288F389E02D808116
:100430008F7D80830895EF92FF920F931F93CF9348
:10044000DF93EC0181E0888F9B8D8C8D981305C024
:10045000E889F989808185FD24C0F62E0B8D10E096
:100460000F5F1F4F0F731127E02E8C8DE8120CC009
:100470000FB607FCFACFE889F989808185FFF5CFAF
:10048000CE010E94FA01F1CF8B8DFE01E80FF11D24
:10049000E35AFF4FF0820B8FEA89FB8980818062EB
:1004A00007C0EE89FF896083E889F98980818064CB
:1004B000808381E090E0DF91CF911F910F91FF90B9
:1004C000EF900895CF93DF93EC01888D8823C9F0D6
:1004D000EA89FB89808185FD05C0A889B9898C914D
:1004E00086FD0FC00FB607FCF5CF808185FFF2CFE8
:1004F000A889B9898C9185FFEDCFCE010E94FA01C0
:10050000E7CFDF91CF91089580E090E0892B21F033
:100510000E94F001811125C080E090E0892B41F01C
:1005200080E090E0892B21F00E94000081111CC026
:1005300080E090E0892B41F080E090E0892B21F071
:100540000E940000811113C080E090E0892BA1F08F
:1005500080E090E0892B81F00E94000081110AC0A8
:1005600008950E940000D8CF0E940000E1CF0E94B1
:100570000000EACF0C94000008958A31910511F132
:1005800054F486319105A1F0489731F57093010438
:100590006093000408958E31910579F080329105C1
:1005A000B1F04C97C9F47093EB036093EA0308959C
:1005B00070930B0460930A0408957093EF036093A3
:1005C000EE0308957093FF036093FE030895709304
:1005D000FD036093FC03089582E292E00C94C60749
:1005E000EF92FF920F931F93CF93DF931F92CDB79C
:1005F000DEB7F82EE62E890161E070E049830E94A3
:10060000BD02B8014981842F0E940F0960E08F2D3F
:100610000E94560861E08E2D0E94560881E080936A
:10062000FB030F90DF91CF911F910F91FF90EF90FF
:100630000895EF92FF920F931F93CF93DF931F9232
:10064000CDB7DEB7F82EE62E890162E070E049836F
:100650000E94BD02B8014981842F0E940F0961E008
:100660008F2D0E94560860E08E2D0E94560881E072
:100670008093FB030F90DF91CF911F910F91FF901B
:10068000EF9008950F931F93CF93DF93EC01062F04
:10069000142F8A31910511F154F486319105A1F09E
:1006A000489731F5109201041092000425C08E3154
:1006B000910579F080329105B1F04C97C9F4109210
:1006C000EB031092EA0318C010920B0410920A0474
:1006D00013C01092EF031092EE030EC01092FF03AE
:1006E0001092FE0309C01092FD031092FC0304C097
:1006F00082E292E00E94C60760E08C2F0E945608BA
:1007000060E0802F0E94560860E0812F0E9456080A
:100710001092FB03DF91CF911F910F91089580916B
:10072000F8039091F9030197F1F0209110043091B2
:10073000110480910804909109042817390761F485
:100740008091FB03811108C044E050E067E170E054
:1007500086E190E00C94420380910A0490910B048E
:100760008230910531F4809110049091110401962A
:1007700007C0019751F480911004909111040197E2
:100780009093110480931004089508958091F203CA
:100790009091F3030197F1F020911204309113042A
:1007A00080910204909103042817390761F4809125
:1007B000FB03811108C046E050E06BE170E08AE184
:1007C00090E00C9442038091FE039091FF038230ED
:1007D000910531F4809112049091130401960EC09A
:1007E000019789F480911204909113041816190648
:1007F00054F4809112049091130401979093130480
:1008000080931204089508958091F6039091F70360
:100810000197F1F020910C0430910D0480910404B3
:10082000909105042817390761F48091FB03811129
:1008300008C049E050E061E270E080E290E00C9492
:1008400042038091FC039091FD038230910531F4C5
:1008500080910C0490910D0401960EC0019789F4CB
:1008600080910C0490910D041816190654F480918F
:100870000C0490910D04019790930D0480930C0447
:10088000089508958091F0039091F103892B41F42C
:1008900048E050E06FE170E08EE190E00C9442039C
:1008A0008091EE039091EF038230910531F48091B5
:1008B000F0039091F10301960EC0019789F48091A5
:1008C000F0039091F1031816190674F48091F00367
:1008D0009091F10301979093F1038093F0030895B1
:1008E00085E392E00C94C60708958091EC03909103
:1008F000ED03892B41F447E050E06DE170E08CE1BD
:1009000090E00C9442038091EA039091EB038230D3
:10091000910531F48091EC039091ED0301960EC0A6
:10092000019789F48091EC039091ED031816190654
:1009300074F48091EC039091ED0301979093ED0393
:100940008093EC0308958DE592E00C94C60708951A
:10095000CF92DF92EF920F93CF93DF93E901109242
:10096000FB03FC0171836083FA018081918186170A
:1009700097079CF483E892E00E94C60762E070E06B
:10098000CE010E94BD02B6018E2D0E940F0961E0CA
:100990008C2F0E94560860E018C0FA018081918176
:1009A00068177907DCF489E892E00E94C60761E0E5
:1009B00070E0CE010E94BD02B6018E2D0E940F098B
:1009C00060E08C2F0E94560861E0802FDF91CF916C
:1009D0000F91EF90DF90CF900C945608DF91CF915C
:1009E0000F91EF90DF90CF900895CF92DF92EF922A
:1009F000FF920F931F938091F4039091F503019759
:100A000001F580910E0490910F04019690930F04CC
:100A100080930E046091E8037091E9036A5D7D4F55
:100A20008CE3C82ED12C99E0E92EF12C01E210E0E4
:100A300020E230E04CE054E084E094E00E94A8041E
:100A40002DC020910E0430910F04809106049091E6
:100A500007042817390791F48091FB0381110EC018
:100A600045E050E069E170E088E190E01F910F916E
:100A7000FF90EF90DF90CF900C94420380910004A0
:100A80009091010482309105C9F480910E049091F7
:100A90000F04019690930F0480930E0480910E042E
:100AA00090910F0463E070E00E94620E892B21F5A3
:100AB0008091E8039091E90301961AC00197E1F44F
:100AC00080910E0490910F04019790930F048093EE
:100AD0000E0480910E0490910F0463E070E00E9478
:100AE000620E892B49F48091E8039091E903019704
:100AF0009093E9038093E8031F910F91FF90EF908B
:100B0000DF90CF9008956F927F928F929F92AF92D5
:100B1000BF92CF92DF92EF92FF920F931F93CF93EA
:100B2000DF934C015B01EA01122F81E090E0F401B8
:100B3000918380838091F8039091F9030E94D407F8
:100B400066246A94762CF50180819181861597053B
:100B5000A9F1F50160807180B701CE010E94BD024C
:100B6000B601802F0E940F09F2E0EF16F10431F474
:100B700061E08C2F0E94560860E009C081E0E81611
:100B8000F10441F460E08C2F0E94560861E0812F4F
:100B90000E94560864E670E080E090E00E94D80968
:100BA00060E08C2F0E94560860E0812F0E9456085A
:100BB00060E070E0802F0E940F09C5CFF2E0EF16D1
:100BC000F104A1F4C631D10531F0C831D10549F4A1
:100BD00082E799E002C086E49AE0F5019183808380
:100BE00008C08EE892E00E94C60703C0F50111829A
:100BF00010828091F8039091F9030E94D407F401C8
:100C000011821082CA31D105D1F044F4C631D10528
:100C100081F06897D1F488EB92E019C0CE31D1050C
:100C200059F0C032D10571F06C9779F48DEC92E0F7
:100C30000EC080EA92E00BC082EE92E008C08AEF1C
:100C400092E005C08DE093E002C080E293E0DF9186
:100C5000CF911F910F91FF90EF90DF90CF90BF90B9
:100C6000AF909F908F907F906F900C94C607CF921B
:100C7000DF92EF92FF920F931F9386E4C82ED12C40
:100C8000EE24E394F12C09E010E021E230E040E2B0
:100C900050E06CE074E086EF93E00E9483052AE563
:100CA000C22ED12C39E0E32EF12C01E210E020E23B
:100CB00030E04CE054E066E272E084E094E00E94B0
:100CC000A80460E971E080E090E00E94D80947E85C
:100CD000C42ED12CEE24E394F12C04E010E027E1A3
:100CE00030E046E150E060E174E088EF93E00E947C
:100CF000830564E873E080E090E00E94D80966E92B
:100D0000C62ED12C72E0E72EF12C05E010E029E18F
:100D100030E048E150E06EE074E084EF93E00E9440
:100D20008305E4EBCE2ED12CF4E0EF2EF12C07E17D
:100D300010E026E130E040E154E063E275E088E055
:100D400094E00E94A804A8E7CA2ED12CB5E0EB2EAF
:100D5000F12C09E110E028E130E04EE054E069EBCD
:100D600074E086E094E00E94A80411E4C12ED12C26
:100D700009E0E02EF12C01E210E020E230E04CE04E
:100D800054E066E272E084E094E00E94A80468E621
:100D900070E180E090E00E94D80980EFC82ED12C4D
:100DA000EE24E394F12C06E010E02BE130E04AE180
:100DB00050E062E174E082EF93E00E9483052AEF45
:100DC000C22ED12C36E0E32EF12C0BE110E02AE10B
:100DD00030E042E154E060E971E082E094E00E949A
:100DE000A80468EB7BE080E090E00E94D80985E3EE
:100DF00093E01F910F91FF90EF90DF90CF900C94B4
:100E0000C6071F920F920FB60F9211240BB60F92C6
:100E10002F933F934F935F936F937F938F939F9302
:100E2000AF93BF93EF93FF9384E194E00E94FA01A4
:100E3000FF91EF91BF91AF919F918F917F916F91B2
:100E40005F914F913F912F910F900BBE0F900FBE6E
:100E50000F901F9018951F920F920FB60F921124AA
:100E60000BB60F922F938F939F93EF93FF93E09185
:100E70002404F09125048081E0912A04F0912B0450
:100E800082FD12C0908180912D048F5F8F7320911D
:100E90002E04821751F0E0912D04F0E0EC5EFB4F40
:100EA000958F80932D0401C08081FF91EF919F91D8
:100EB0008F912F910F900BBE0F900FBE0F901F9030
:100EC00018953FB7F8948091B6049091B704A0911B
:100ED000B804B091B90426B5A89B05C02F3F19F0FE
:100EE0000196A11DB11D3FBFBA2FA92F982F8827AA
:100EF000820F911DA11DB11DBC01CD0142E0660F05
:100F0000771F881F991F4A95D1F708950895CF92AA
:100F1000DF92EF92FF920F931F93CF93DF936C01B9
:100F20007A018B01C0E0D0E0CE15DF0589F0D80151
:100F30006D918D01D601ED91FC910190F081E02D34
:100F4000C6011995892B11F47E0102C02196ECCFC0
:100F5000C701DF91CF911F910F91FF90EF90DF902C
:100F6000CF9008950E94B40E009769F0FC010190A3
:100F70000020E9F73197AF01481B590BBC0184E110
:100F800094E00C94870780E090E00895CF93DF937E
:100F90000E94B407EC0189E493E00E94B4078C0F2F
:100FA0009D1FDF91CF9108958F929F92AF92BF9234
:100FB000CF92DF92EF92FF920F931F93CF93DF9325
:100FC000CDB7DEB7A1970FB6F894DEBF0FBECDBF89
:100FD0006C01990FEE08FF08F7FE31C0E091140490
:100FE000F09115040190F081E02D6DE284E194E030
:100FF00019958C0122273327A9012C193D094E0987
:101000005F0919A2CE0181967C019AE0892E912C6C
:10101000A12CB12CCA01B901A50194010E94760E40
:10102000605DF70162937F0121153105410551058E
:1010300089F7CF010E94B407080F191F1EC0A7012E
:10104000960119A28E010F5D1F4F8AE0C82ED12C88
:10105000E12CF12CCA01B901A70196010E94760E7C
:10106000605DF80162938F0121153105410551053D
:1010700089F7CF010E94B4078C0189E493E00E94B4
:10108000B407800F911FA1960FB6F894DEBF0FBE74
:10109000CDBFDF91CF911F910F91FF90EF90DF9027
:1010A000CF90BF90AF909F908F900895362F90E093
:1010B000FC01E055FD4F4491FC01E659FD4F2491A0
:1010C000FC01EC5DFD4F9491992309F46BC044231E
:1010D00009F455C050E0FA013197E231F10508F00A
:1010E0004EC08827EE58FF4F8F4F0C94980E80917A
:1010F00080008F7707C0809180008F7D03C0809132
:101100008000877F809380003AC084B58F7702C0CB
:1011100084B58F7D84BD33C08091B0008F7703C0CC
:101120008091B0008F7D8093B00029C080919000A5
:101130008F7707C0809190008F7D03C080919000D1
:10114000877F809390001BC08091A0008F7707C09D
:101150008091A0008F7D03C08091A000877F809345
:10116000A0000DC0809120018F7707C080912001E1
:101170008F7D03C080912001877F80932001E92F1C
:10118000F0E0EE0FFF1FE65FFD4FA591B4918FB722
:10119000F894EC91311103C020952E2301C02E2B21
:1011A0002C938FBF0895CF93DF9390E0FC01E65915
:1011B000FD4F2491FC01EC5DFD4F8491882361F18A
:1011C00090E0880F991FFC01E051FE4FC591D4912A
:1011D000FC01E65FFD4FA591B491611109C09FB775
:1011E000F8948881209582238883EC912E230BC06C
:1011F000623061F49FB7F8943881822F8095832301
:101200008883EC912E2B2C939FBF06C08FB7F89448
:10121000E8812E2B28838FBFDF91CF9108951F93F4
:10122000CF93DF93182FEB0161E00E94D308209742
:1012300011F460E004C0CF3FD10539F461E0812FA3
:10124000DF91CF911F910C945608E12FF0E0E0550B
:10125000FD4FE4914E2F50E0FA013197E231F10554
:1012600008F09DC08827EC57FF4F8F4F0C94980EC5
:1012700084B5806884BDC7BD97C084B5806284BDD5
:10128000C8BD92C080918000806880938000D09318
:101290008900C093880088C080918000806280931C
:1012A0008000D0938B00C0938A007EC08091800024
:1012B000886080938000D0938D00C0938C0074C0B0
:1012C0008091B00080688093B000C093B3006CC080
:1012D0008091B00080628093B000C093B40064C07D
:1012E00080919000806880939000D0939900C09383
:1012F00098005AC080919000806280939000D093B3
:101300009B00C0939A0050C08091900088608093A9
:101310009000D0939D00C0939C0046C08091A00097
:1013200080688093A0008091A0008F7B8093A000B4
:10133000D093A900C093A80037C08091A00080621C
:101340008093A000D093AB00C093AA002DC08091E1
:10135000A00088608093A000D093AD00C093AC0043
:1013600023C080912001806880932001D0932901BF
:10137000C093280119C080912001806280932001D0
:10138000D0932B01C0932A010FC080912001886067
:1013900080932001D0932D01C0932C0105C0C0384B
:1013A000D1050CF04BCF45CFDF91CF911F91089520
:1013B0008F929F92AF92BF92CF92DF92EF92FF9265
:1013C0006B017C010E9461074B015C01C114D104D7
:1013D000E104F104F1F00E946107DC01CB018819FE
:1013E0009909AA09BB09883E9340A105B10570F38C
:1013F00021E0C21AD108E108F10888EE880E83E0E6
:10140000981EA11CB11CC114D104E104F10419F708
:10141000DDCFFF90EF90DF90CF90BF90AF909F9087
:101420008F9008951F920F920FB60F9211242F9351
:101430003F938F939F93AF93BF938091B20490910A
:10144000B304A091B404B091B5043091B10423E089
:10145000230F2D3720F40196A11DB11D05C026E8EC
:10146000230F0296A11DB11D2093B1048093B204F5
:101470009093B304A093B404B093B5048091B604E0
:101480009091B704A091B804B091B9040196A11D40
:10149000B11D8093B6049093B704A093B804B093A1
:1014A000B904BF91AF919F918F913F912F910F9070
:1014B0000FBE0F901F9018951F920F920FB60F92AC
:1014C00011240BB60F922F933F934F935F936F931B
:1014D0007F938F939F93AF93BF93EF93FF93E0918D
:1014E0000E02F0910F021995FF91EF91BF91AF910C
:1014F0009F918F917F916F915F914F913F912F912C
:101500000F900BBE0F900FBE0F901F9018951F925B
:101510000F920FB60F9211240BB60F922F933F9399
:101520004F935F936F937F938F939F93AF93BF93EB
:10153000EF93FF93E0910C02F0910D021995FF914A
:10154000EF91BF91AF919F918F917F916F915F913B
:101550004F913F912F910F900BBE0F900FBE0F90A8
:101560001F9018951F920F920FB60F9211240BB671
:101570000F922F933F934F935F936F937F938F932C
:101580009F93AF93BF93EF93FF93E0910202F0918B
:1015900003021995FF91EF91BF91AF919F918F91A8
:1015A0007F916F915F914F913F912F910F900BBE63
:1015B0000F900FBE0F901F9018951F920F920FB6AD
:1015C0000F9211240BB60F922F933F934F935F937B
:1015D0006F937F938F939F93AF93BF93EF93FF93FB
:1015E000E0910002F09101021995FF91EF91BF91F6
:1015F000AF919F918F917F916F915F914F913F91AB
:101600002F910F900BBE0F900FBE0F901F9018954B
:101610001F920F920FB60F9211240BB60F922F93B9
:101620003F934F935F936F937F938F939F93AF936A
:10163000BF93EF93FF93E0910A02F0910B0219958B
:10164000FF91EF91BF91AF919F918F917F916F919A
:101650005F914F913F912F910F900BBE0F900FBE56
:101660000F901F9018951F920F920FB60F92112492
:101670000BB60F922F933F934F935F936F937F938C
:101680008F939F93AF93BF93EF93FF93E0910802E3
:10169000F09109021995FF91EF91BF91AF919F9140
:1016A0008F917F916F915F914F913F912F910F900B
:1016B0000BBE0F900FBE0F901F9018951F920F92A8
:1016C0000FB60F9211240BB60F922F933F934F93A7
:1016D0005F936F937F938F939F93AF93BF93EF939A
:1016E000FF93E0910602F09107021995FF91EF91A7
:1016F000BF91AF919F918F917F916F915F914F912A
:101700003F912F910F900BBE0F900FBE0F901F9027
:1017100018951F920F920FB60F9211240BB60F92CD
:101720002F933F934F935F936F937F938F939F93E9
:10173000AF93BF93EF93FF93E0910402F091050202
:101740001995FF91EF91BF91AF919F918F917F91EB
:101750006F915F914F913F912F910F900BBE0F9022
:101760000FBE0F901F901895789484B5826084BD49
:1017700084B5816084BD85B5826085BD85B5816095
:1017800085BD80916E00816080936E001092810013
:1017900080918100826080938100809181008160CE
:1017A000809381008091800081608093800080918F
:1017B000B10084608093B1008091B000816080931B
:1017C000B00080919100826080939100809191009F
:1017D000816080939100809190008160809390005F
:1017E0008091A10082608093A1008091A10081601E
:1017F0008093A1008091A00081608093A0008091DF
:101800002101826080932101809121018160809378
:1018100021018091200181608093200180917A00D4
:10182000846080937A0080917A00826080937A004D
:1018300080917A00816080937A0080917A0080683C
:1018400080937A001092C100C4E061E08C2F0E9466
:10185000D308CF5FCA30C9F7C6E161E08C2F0E9480
:10186000D308CF5FC232C9F762E082E00E94D3089A
:1018700062E083E00E94D30862E085E10E94D30821
:1018800062E082E10E94D30862E083E10E94D30813
:1018900062E084E10E94D30860E08EE00E94D308F9
:1018A000E0912404F091250482E08083E0912004FB
:1018B000F09121041082E0912204F09123048FEC36
:1018C000808310922C04E0912804F091290486E092
:1018D0008083E0912604F0912704808180618083D9
:1018E000E0912604F0912704808188608083E09154
:1018F0002604F0912704808180688083E09126048B
:10190000F091270480818F7D80838FE893E090930E
:1019100001028093000280916A00836080936A00D4
:10192000EC9A85EF94E090930302809302028091F9
:101930006A008C6080936A00ED9A85E794E090934A
:101940000902809308028091690080638093690096
:10195000EA9A82E494E090930702809306028091D1
:1019600069008C6080936900E99A86EC93E090931B
:101970000B0280930A0280916900806C8093690059
:10198000EB9A84E094E090930502809304028091A6
:101990006900836080936900E89A0E943706D1E06D
:1019A00084E194E00E94E401181619060CF05AC173
:1019B00084E194E00E94C201C82FE0911404F091E8
:1019C00015040190F081E02D682F84E194E01995D1
:1019D00089E493E00E94B407CC3609F4DDC00CF032
:1019E00079C0C23609F405C10CF053C0C93409F4FA
:1019F0002FC1C13609F032C180E693E00E94C607CC
:101A000084EBC82ED12C94E0E92EF12C07E110E0F4
:101A100026E130E040E154E063E275E088E094E0E4
:101A20000E94A80428E7C22ED12C35E0E32EF12C29
:101A300009E110E028E130E04EE054E069EB74E0A9
:101A400086E094E00E94A80441E4C42ED12C59E021
:101A5000E52EF12C01E210E020E230E04CE054E011
:101A600066E272E084E094E00E94A8046AEFC62E69
:101A7000D12C76E0E72EF12C0BE110E02AE130E0EA
:101A800042E154E066E572E082E094E00E94A8043E
:101A90007CC0C43609F49EC00CF4CEC0C63609F032
:101AA000DDC024EB30E044E050E067E170E086E127
:101AB00090E00E94190328E730E045E050E069E13A
:101AC00070E088E190E00E94F002D093FA0382EA8D
:101AD00093E0C6C0C53709F46EC0B4F4C33711F142
:101AE0000CF0AFC0C23709F0B9C021E430E049E0E2
:101AF00050E061E270E080E290E00E941903D09330
:101B0000FB0383E793E0ACC0C83709F490C0CA3741
:101B100009F488C0C63709F0A1C080910C049091E7
:101B20000D0493C08CE493E00E94C607C6E160E018
:101B30008C2F0E945608CF5FC332C9F7C4E060E023
:101B400070E08C2F0E940F09CF5FCA30C1F78CE480
:101B500093E086C080910A0490910B04892B09F4CC
:101B600081C08091FE039091FF03892B09F47AC014
:101B70008091FC039091FD03892B09F473C064E606
:101B800070E080E090E00E94D8098091000490917C
:101B90000104892BF9F666C021E430E049E050E009
:101BA00061E270E080E290E00E94F002D093FB03DB
:101BB00080E893E055C02AEF30E046E050E06BE16A
:101BC00070E08AE190E00E941903D093FB038CE857
:101BD00093E046C02AEF30E046E050E06BE170E071
:101BE0008AE190E00E94F002D093FB0386E993E043
:101BF00037C024EB30E044E050E067E170E086E17C
:101C000090E00E94F00228E730E045E050E069E112
:101C100070E088E190E00E941903D093FA0381EB11
:101C200093E01EC080911204909113040EC0809125
:101C300010049091110409C080910E0490910F043A
:101C400004C080910A0490910B040E94D4070AC03A
:101C500082EC93E00E94C6070E94370685ED93E070
:101C60000E94C6070E9484029BCEE4E1F4E0138246
:101C7000128288EE93E0A0E0B0E084839583A6838F
:101C8000B78384E192E09183808385EC90E095872F
:101C9000848784EC90E09787868780EC90E0918B36
:101CA000808B81EC90E0938B828B82EC90E0958B23
:101CB000848B86EC90E0978B868B118E128E138E20
:101CC000148E089597FB072E16F4009407D077FD25
:101CD00009D00E94A00E07FC05D03EF49095819596
:101CE0009F4F0895709561957F4F0895A1E21A2E38
:101CF000AA1BBB1BFD010DC0AA1FBB1FEE1FFF1FB0
:101D0000A217B307E407F50720F0A21BB30BE40BFF
:101D1000F50B661F771F881F991F1A9469F7609546
:101D20007095809590959B01AC01BD01CF01089500
:101D3000EE0FFF1F881F8BBF0790F691E02D1994BF
:101D4000AA1BBB1B51E107C0AA1FBB1FA617B707E1
:101D500010F0A61BB70B881F991F5A95A9F78095FD
:101D60009095BC01CD01089581E090E0F8940C9429
:061D7000B90EF894FFCF4C
:101D760086078607860786078607860786078607F5
:101D8600000000001B028707B3016202E401C201E2
:101D9600D6016572726F72206F6E20646972656318
:101DA60074696F6E00536F6D657468696E6720693C
:101DB6006E2077726973744C4820656E636F646534
:101DC600722077656E742077726F6E6700536F6D41
:101DD600657468696E6720696E207772697374200E
:101DE600656E636F6465722077656E742077726FB7
:101DF6006E67005249474854004C45465400696E88
:101E0600697420737769746368206572726F7200F3
:101E160053686F756C6465722073657475702063A2
:101E26006F6D706C65746500656C626F77207365A5
:101E360074757020636F6D706C6574650077726978
:101E4600737420736574757020636F6D706C657440
:101E560065005772697374204C48207365747570F9
:101E660020636F6D706C657465005A6564207365D8
:101E760074757020636F6D706C6574650079617739
:101E860020736574757020636F6D706C6574650082
:101E9600696E69742077656E74207665727920772D
:101EA600726F6E6700616C6C207365747570732059
:101EB600636F6D706C657465000D0A0053746F7006
:101EC60070696E6720616C6C206D6F746F72730041
:101ED600726573657474696E6720706F736974696F
:101EE6006F6E006D6F76696E672052696768740061
:101EF6006D6F76696E67206C656674006D6F7669C6
:101F06006E67207570006D6F76696E6720646F77F7
:101F16006E006D6F76696E6720666F7277617264A8
:101F2600006D6F76696E67206261636B77617264BC
:101F36007300696E697469616C6973696E672052B2
:101F46006F626F7400696E76616C696420636F6D91
:061F56006D616E640000E5
:00000001FF
