:100000000C947C010C9409080C94DE070C94B30743
:100010000C9488070C945D070C9432070C94070726
:100020000C94DC060C94AD010C94AD010C94AD0164
:100030000C94AD010C94AD010C94AD010C94AD0188
:100040000C94AD010C94AD010C94AD010C94AD0178
:100050000C94AD010C94AD010C94AD010C9492067E
:100060000C94AD010C945E080C9434080C94AD0112
:100070000C94AD010C94AD010C94AD010C94AD0148
:100080000C94AD010C94AD010C94AD010C94AD0138
:100090000C94AD010C94AD010C94AD010C94AD0128
:1000A0000C94AD010C94AD010C94AD010C94AD0118
:1000B0000C94AD010C94AD010C94AD010C94AD0108
:1000C0000C94AD010C94AD010C94AD010C94AD01F8
:1000D0000C94AD010C94AD010C94AD010C94AD01E8
:1000E0000C94AD01DE01E101D001D401D801180268
:1000F000E501E901EF01F301F701FD01010205024C
:1001000018020B020F021302910296029B02A50233
:10011000AF022803B902C102C902D302DD02E7021D
:10012000F602000328030A0314031E030C94E702DB
:100130000C9456030C9428030C94FD010C940B02B0
:100140000C9418020C94D3020C9491020C94400568
:100150000C942A060C94B9020C94F2050C94F70145
:100160000C9496020C946C050C94E5010C94140309
:100170000C945D060C9457030C94EE030C94A903A5
:100180000C94E1010C94F6090C9400030C94BF0547
:100190000C940A030C94AF020C94E9010C943504FE
:1001A0000C9405020C94B7030C94C9020C94A5029C
:1001B0000C94F3010C949B020C941E030C94D80134
:1001C0000C9486030C9495030C94EF010C94D001CD
:1001D0000C940F020C9401020C94DE010C94DD02CD
:1001E0000C94F6020C94C1020C94D4010C941302EA
:1001F00000002100240027002A002D0030003300D9
:1002000001010000040107010A010000220025008D
:1002100028002B002E0031003400020100000501EF
:1002200008010B0105050505070508080808020275
:1002300002020A0A08080404040401010101010180
:1002400001010303030303030303040707070C0C63
:100250000C0C0C0C0C0C020202020606060606062A
:1002600006060B0B0B0B0B0B0B0B010210202008CF
:100270000810204010204080020102010804020101
:100280000102040810204080804020100804020170
:1002900080040201804020100804020108040201C9
:1002A0000102040810204080010204081020408050
:1002B00000000A0B02090C0D0E08070304010000E0
:1002C000000000000000000000000000000000002E
:1002D00000000000000000000000000012111000EB
:1002E000000000000000000000000000000000000E
:1002F000000000000000F60911241FBECFEFD1E27C
:10030000DEBFCDBF00E00CBF23E0A6E9B2E001C034
:100310001D92AB35B207E1F712E0A0E0B2E0E4EBEA
:10032000F4E100E00BBF02C007900D92A639B107BF
:10033000D9F711E0CCE7D1E000E006C02197010930
:10034000802FFE010E94370ACB37D10780E00807D3
:10035000A9F70E9494080C94580A0C940000362FB8
:1003600090E0FC01E055FD4F4491FC01E659FD4F42
:100370002491FC01EC5DFD4F9491992309F46BC02D
:10038000442309F455C050E0FA013197E231F105F8
:1003900008F04EC08827EE58FF4F8F4F0C94370A55
:1003A000809180008F7707C0809180008F7D03C08F
:1003B00080918000877F809380003AC084B58F77DA
:1003C00002C084B58F7D84BD33C08091B0008F772B
:1003D00003C08091B0008F7D8093B00029C08091D0
:1003E00090008F7707C0809190008F7D03C080912F
:1003F0009000877F809390001BC08091A0008F7732
:1004000007C08091A0008F7D03C08091A000877FEE
:100410008093A0000DC0809120018F7707C080914C
:1004200020018F7D03C080912001877F8093200170
:10043000E92FF0E0EE0FFF1FE65FFD4FA591B491AD
:100440008FB7F894EC91311103C020952E2301C091
:100450002E2B2C938FBF0895CF93DF9390E0FC0158
:10046000E659FD4F2491FC01EC5DFD4F84918823FA
:1004700061F190E0880F991FFC01E051FE4FC5919A
:10048000D491FC01E65FFD4FA591B491611109C0C3
:100490009FB7F8948881209582238883EC912E233E
:1004A0000BC0623061F49FB7F8943881822F809539
:1004B00083238883EC912E2B2C939FBF06C08FB78C
:1004C000F894E8812E2B28838FBFDF91CF91089578
:1004D0001F93CF93DF93182FEB0161E00E942C0252
:1004E000209711F460E004C0CF3FD10539F461E0FA
:1004F000812FDF91CF911F910C94AF01E12FF0E09C
:10050000E055FD4FE4914E2F50E0FA013197E23172
:10051000F10508F09DC08827EC57FF4F8F4F0C94D2
:10052000370A84B5806884BDC7BD97C084B5806232
:1005300084BDC8BD92C08091800080688093800097
:10054000D0938900C093880088C080918000806229
:1005500080938000D0938B00C0938A007EC08091EE
:100560008000886080938000D0938D00C0938C00C1
:1005700074C08091B00080688093B000C093B300D5
:100580006CC08091B00080628093B000C093B400D2
:1005900064C080919000806880939000D09399000F
:1005A000C09398005AC08091900080628093900020
:1005B000D0939B00C0939A0050C0809190008860B7
:1005C00080939000D0939D00C0939C0046C0809182
:1005D000A00080688093A0008091A0008F7B809312
:1005E000A000D093A900C093A80037C08091A000BC
:1005F00080628093A000D093AB00C093AA002DC06E
:100600008091A00088608093A000D093AD00C0933B
:10061000AC0023C080912001806880932001D0939A
:100620002901C093280119C0809120018062809324
:100630002001D0932B01C0932A010FC0809120018B
:10064000886080932001D0932D01C0932C0105C0B8
:10065000C038D1050CF04BCF45CFDF91CF911F9122
:1006600008953FB7F8948091A9029091AA02A091B1
:10067000AB02B091AC0226B5A89B05C02F3F19F084
:100680000196A11DB11D3FBFBA2FA92F982F882712
:10069000820F911DA11DB11DBC01CD0142E0660F6D
:1006A000771F881F991F4A95D1F708950895CF9213
:1006B000DF92EF92FF920F931F93CF93DF936C0122
:1006C0007A018B01C0E0D0E0CE15DF0589F0D801BA
:1006D0006D918D01D601ED91FC910190F081E02D9D
:1006E000C6011995892B11F47E0102C02196ECCF29
:1006F000C701DF91CF911F910F91FF90EF90DF9095
:10070000CF900895089580E090E00895FC01538D06
:10071000448D252F30E0842F90E0821B930B5417DB
:1007200010F0CF96089501970895FC01918D828D68
:10073000981761F0828DDF01A80FB11D5D968C9135
:10074000928D9F5F9F73928F90E008958FEF9FEF40
:100750000895FC01918D828D981731F0828DE80FFC
:10076000F11D858D90E008958FEF9FEF0895FC01B6
:10077000918D228D892F90E0805C9F4F821B910983
:100780008F73992708958EEB92E00E94B70321E0C2
:10079000892B09F420E0822F0895FC01848DDF016C
:1007A000A80FB11DA35ABF4F2C91848D90E00196E4
:1007B0008F739927848FA689B7892C93A089B189D3
:1007C0008C9180648C93938D848D981306C00288DD
:1007D000F389E02D80818F7D80830895EF92FF92D1
:1007E0000F931F93CF93DF93EC0181E0888F9B8D54
:1007F0008C8D981305C0E889F989808185FD24C016
:10080000F62E0B8D10E00F5F1F4F0F731127E02E98
:100810008C8DE8120CC00FB607FCFACFE889F98975
:10082000808185FFF5CFCE010E94CD03F1CF8B8D66
:10083000FE01E80FF11DE35AFF4FF0820B8FEA89AA
:10084000FB898081806207C0EE89FF896083E88927
:10085000F98980818064808381E090E0DF91CF918D
:100860001F910F91FF90EF900895CF93DF93EC01CC
:10087000888D8823C9F0EA89FB89808185FD05C0C0
:10088000A889B9898C9186FD0FC00FB607FCF5CFFA
:10089000808185FFF2CFA889B9898C9185FFEDCF42
:1008A000CE010E94CD03E7CFDF91CF91089580E084
:1008B00090E0892B21F00E94C303811125C080E0C4
:1008C00090E0892B41F080E090E0892B21F00E949C
:1008D000000081111CC080E090E0892B41F080E095
:1008E00090E0892B21F00E940000811113C080E06C
:1008F00090E0892BA1F080E090E0892B81F00E94AC
:10090000000081110AC008950E940000D8CF0E9403
:100910000000E1CF0E940000EACF0C94000008958F
:10092000CF93DF93009779F0FC0101900020E9F765
:100930003197AF01481B590BBC018EEB92E00E942E
:100940005703EC0102C0C0E0D0E042E050E062E2B8
:1009500072E08EEB92E00E9457038C0F9D1FDF9197
:10096000CF9108951092BD029093BC028093BB0278
:100970002091B9023091BA0228173907ACF485E208
:1009800092E00E94900482E090E09093AE02809307
:10099000AD026CE370E089E00E94680261E080E2F1
:1009A0000E94AF0160E01BC02091B9023091BA02F1
:1009B00082179307BCF48BE292E00E94900481E0DE
:1009C00090E09093AE028093AD026CE370E089E01A
:1009D0000E94680260E080E20E94AF0161E081E273
:1009E0000C94AF0108950F931F93CF93DF93EC0105
:1009F000062F142F8A31910511F154F48631910597
:100A0000A1F0489731F51092B6021092B50225C0B8
:100A10008E31910579F080329105B1F04C97C9F48F
:100A20001092B4021092B30218C01092B802109241
:100A3000B70213C01092B2021092B1020EC010920F
:100A4000B0021092AF0209C01092AE021092AD0235
:100A500004C080E392E00E94900460E08C2F0E942A
:100A6000AF0160E0802F0E94AF0160E0812F0E9403
:100A7000AF011092BD02DF91CF911F910F910895A8
:100A80008091980290919902892B21F48091BD0266
:100A90008823C9F08091B7029091B8028230910505
:100AA00031F48091980290919902019607C00197C4
:100AB00091F48091980290919902019790939902F4
:100AC00080939802089544E050E067E170E086E189
:100AD00090E00C94F304089580919C0290919D0203
:100AE000892B29F48091BD02882309F43FC08091AD
:100AF000B5029091B60282309105C9F480919C02B2
:100B000090919D02019690939D0280939C0280910A
:100B10009C0290919D0263E070E00E94230A892B61
:100B200069F580919A0290919B0201961AC00197F3
:100B300029F580919C0290919D02019790939D02CE
:100B400080939C0280919C0290919D0263E070E0F2
:100B50000E94230A892B91F480919A0290919B0222
:100B6000019790939B0280939A02089545E050E08C
:100B700069E170E088E190E00C94F30408958091BD
:100B8000A2029091A302892B21F48091BD028823B7
:100B900001F18091AF029091B0028230910531F461
:100BA0008091A2029091A30201960EC00197C9F410
:100BB0008091A2029091A3021816190694F48091D4
:100BC000A2029091A30201979093A3028093A202A4
:100BD000089546E050E06BE170E08AE190E00C940B
:100BE000F30408952091B9023091BA028091BB02BA
:100BF0009091BC022817390721F48091BD02882307
:100C000001F18091AD029091AE028230910531F4F4
:100C10008091B9029091BA0201960EC00197C9F471
:100C20008091B9029091BA021816190694F4809135
:100C3000B9029091BA0201979093BA028093B902D7
:100C4000089549E050E061E270E080E290E00C94A9
:100C5000F30408958091A0029091A102892B41F4A0
:100C600048E050E06FE170E08EE190E00C94F30416
:100C70008091B1029091B2028230910531F480915D
:100C8000A0029091A10201960EC0019789F4809173
:100C9000A0029091A1021816190674F48091A00286
:100CA0009091A10201979093A1028093A0020895D0
:100CB00083E492E00C949004089580919E029091B8
:100CC0009F02892B41F447E050E06DE170E08CE138
:100CD00090E00C94F3048091B3029091B4028230BE
:100CE000910531F480919E0290919F0201960EC071
:100CF000019789F480919E0290919F02181619061F
:100D000074F480919E0290919F02019790939F02AC
:100D100080939E0208958BE692E00C9490040895CF
:100D20000E94530A1F920F920FB60F9211242F9315
:100D30003F938F939F93AF93BF938091A502909120
:100D4000A602A091A702B091A8023091A40223E0CC
:100D5000230F2D3720F40196A11DB11D05C026E8F3
:100D6000230F0296A11DB11D2093A4028093A5021A
:100D70009093A602A093A702B093A8028091A90223
:100D80009091AA02A091AB02B091AC020196A11D74
:100D9000B11D8093A9029093AA02A093AB02B093D5
:100DA000AC02BF91AF919F918F913F912F910F9086
:100DB0000FBE0F901F9018951F920F920FB60F92B3
:100DC00011240BB60F922F933F934F935F936F9322
:100DD0007F938F939F93AF93BF93EF93FF93E09194
:100DE0000E02F0910F021995FF91EF91BF91AF9113
:100DF0009F918F917F916F915F914F913F912F9133
:100E00000F900BBE0F900FBE0F901F9018951F9262
:100E10000F920FB60F9211240BB60F922F933F93A0
:100E20004F935F936F937F938F939F93AF93BF93F2
:100E3000EF93FF93E0910C02F0910D021995FF9151
:100E4000EF91BF91AF919F918F917F916F915F9142
:100E50004F913F912F910F900BBE0F900FBE0F90AF
:100E60001F9018951F920F920FB60F9211240BB678
:100E70000F922F933F934F935F936F937F938F9333
:100E80009F93AF93BF93EF93FF93E0910202F09192
:100E900003021995FF91EF91BF91AF919F918F91AF
:100EA0007F916F915F914F913F912F910F900BBE6A
:100EB0000F900FBE0F901F9018951F920F920FB6B4
:100EC0000F9211240BB60F922F933F934F935F9382
:100ED0006F937F938F939F93AF93BF93EF93FF9302
:100EE000E0910002F09101021995FF91EF91BF91FD
:100EF000AF919F918F917F916F915F914F913F91B2
:100F00002F910F900BBE0F900FBE0F901F90189552
:100F10001F920F920FB60F9211240BB60F922F93C0
:100F20003F934F935F936F937F938F939F93AF9371
:100F3000BF93EF93FF93E0910A02F0910B02199592
:100F4000FF91EF91BF91AF919F918F917F916F91A1
:100F50005F914F913F912F910F900BBE0F900FBE5D
:100F60000F901F9018951F920F920FB60F92112499
:100F70000BB60F922F933F934F935F936F937F9393
:100F80008F939F93AF93BF93EF93FF93E0910802EA
:100F9000F09109021995FF91EF91BF91AF919F9147
:100FA0008F917F916F915F914F913F912F910F9012
:100FB0000BBE0F900FBE0F901F9018951F920F92AF
:100FC0000FB60F9211240BB60F922F933F934F93AE
:100FD0005F936F937F938F939F93AF93BF93EF93A1
:100FE000FF93E0910602F09107021995FF91EF91AE
:100FF000BF91AF919F918F917F916F915F914F9131
:101000003F912F910F900BBE0F900FBE0F901F902E
:1010100018951F920F920FB60F9211240BB60F92D4
:101020002F933F934F935F936F937F938F939F93F0
:10103000AF93BF93EF93FF93E0910402F091050209
:101040001995FF91EF91BF91AF919F918F917F91F2
:101050006F915F914F913F912F910F900BBE0F9029
:101060000FBE0F901F9018951F920F920FB60F9200
:1010700011240BB60F922F933F934F935F936F936F
:101080007F938F939F93AF93BF93EF93FF938EEBD9
:1010900092E00E94CD03FF91EF91BF91AF919F919C
:1010A0008F917F916F915F914F913F912F910F9011
:1010B0000BBE0F900FBE0F901F9018951F920F92AE
:1010C0000FB60F9211240BB60F922F938F939F930D
:1010D000EF93FF93E091CE02F091CF028081E091F7
:1010E000D402F091D50282FD12C090818091D70286
:1010F0008F5F8F732091D802821751F0E091D70251
:10110000F0E0E254FD4F958F8093D70201C08081BB
:10111000FF91EF919F918F912F910F900BBE0F90A8
:101120000FBE0F901F901895789484B5826084BD8F
:1011300084B5816084BD85B5826085BD85B58160DB
:1011400085BD80916E00816080936E001092810059
:101150008091810082608093810080918100816014
:1011600080938100809180008160809380008091D5
:10117000B10084608093B1008091B0008160809361
:10118000B0008091910082608093910080919100E5
:1011900081608093910080919000816080939000A5
:1011A0008091A10082608093A1008091A100816064
:1011B0008093A1008091A00081608093A000809125
:1011C00021018260809321018091210181608093BF
:1011D00021018091200181608093200180917A001B
:1011E000846080937A0080917A00826080937A0094
:1011F00080917A00816080937A0080917A00806883
:1012000080937A001092C100C4E061E08C2F0E94AC
:101210002C02CF5FCA30C9F7C6E161E08C2F0E9473
:101220002C02CF5FC232C9F762E082E00E942C023A
:1012300062E083E00E942C0262E085E10E942C02C1
:1012400062E082E10E942C0262E083E10E942C02B3
:1012500062E084E10E942C0260E08EE00E942C0299
:10126000E091CE02F091CF0282E08083E091CA0249
:10127000F091CB021082E091CC02F091CD028FEC84
:1012800080831092D602E091D202F091D30286E0E0
:101290008083E091D002F091D102808180618083CF
:1012A000E091D002F091D102808188608083E0914A
:1012B000D002F091D102808180688083E091D002D9
:1012C000F091D10280818F7D808380E495E09093BE
:1012D00001028093000280916A00836080936A001B
:1012E000EC9A8CE695E09093030280930202809141
:1012F0006A008C6080936A00ED9A8DE596E0909389
:1013000009028093080280916900806380936900DC
:10131000EA9A8AE296E0909307028093060280910F
:1013200069008C6080936900E99A8FEB95E0909357
:101330000B0280930A0280916900806C809369009F
:10134000EB9A82EF95E090930502809304028091DE
:101350006900836080936900E89A6FEF70E088E02D
:101360000E94680260E08EE10E94AF0161E08FE1BF
:101370000E94AF016FEF70E087E00E94680261E0B9
:101380008CE10E94AF0160E08DE10E94AF0181E934
:1013900092E00E9490040E9431034B015C018CEDAD
:1013A000C82E85E0D82EE12CF12C0E943103DC01FF
:1013B000CB0188199909AA09BB09883E9340A10568
:1013C000B10558F021E0C21AD108E108F10888EE11
:1013D000880E83E0981EA11CB11CC114D104E10445
:1013E000F10419F780E090E00E94580AEEEBF2E079
:1013F0001382128288EE93E0A0E0B0E084839583AC
:10140000A683B78384E192E09183808385EC90E0AA
:101410009587848784EC90E09787868780EC90E0BE
:10142000918B808B81EC90E0938B828B82EC90E0AF
:10143000958B848B86EC90E0978B868B118E128E29
:10144000138E148E089597FB072E16F4009407D080
:1014500077FD09D00E943F0A07FC05D03EF4909525
:1014600081959F4F0895709561957F4F0895EE0F78
:10147000FF1F881F8BBF0790F691E02D1994AA1BC0
:10148000BB1B51E107C0AA1FBB1FA617B70710F06F
:10149000A61BB70B881F991F5A95A9F780959095A1
:1014A000BC01CD01089581E090E0F8940C94580AB5
:0414B000F894FFCFDE
:1014B4005603560356035603560356035603560360
:1014C40000000000EE03570386033504B7039503B9
:1014D400A9030D0A005249474854004C454654009C
:1014E4006572726F72206F6E2064697265637469CD
:1014F4006F6E00536F6D657468696E6720696E2046
:1015040077726973744C4820656E636F64657220EA
:1015140077656E742077726F6E6700536F6D6574B4
:1015240068696E6720696E20777269737420656ECE
:10153400636F6465722077656E742077726F6E676F
:0615440000686F6E6400F8
:00000001FF
